:020000040800F2
:1000000000100020211C00086D1900086F1900085D
:100010007119000873190008751900080000000024
:100020000000000000000000000000007719000838
:1000300079190008000000007B1900087D190008EC
:10004000691C0008691C0008691C0008691C00087C
:10005000691C0008691C0008691C0008691C00086C
:10006000691C0008691C0008691C0008691C00085C
:10007000691C0008691C0008691C0008691C00084C
:10008000691C0008691C0008691C000800000000C9
:10009000000000000000000000000000691C0008D3
:1000A000691C0008691C0008691C0008691C00081C
:1000B000691C0008691C0008691C0008691C00080C
:1000C000691C00080000000000000000691C000816
:1000D000691C0008691C0008691C0008691C0008EC
:1000E000691C0008691C0008691C00080000000069
:1000F0000000000000000000000000000000000000
:1001000000000000000000000000000000000000EF
:100110000000000000000000691C0008691C0008C5
:1001200000000000000000000000000000000000CF
:1001300000000000000000000000000000000000BF
:1001400000000000000000000000000000000000AF
:10015000000000000000000000000000000000009F
:10016000000000000000000000000000000000008F
:10017000000000000000000000000000000000007F
:10018000000000000000000000000000000000006F
:10019000000000000000000000000000000000005F
:1001A000000000000000000000000000000000004F
:1001B000000000000000000000000000000000003F
:1001C0000000000000000000000000005FF808F1DF
:1001D000044B05481B1A062B02D9044B03B11847E0
:1001E000704700BF0700002004000020000000004E
:1001F00005490648091A891001EBD171491002D04E
:10020000034B03B11847704704000020040000208E
:100210000000000010B5064C237843B9FFF7D8FF63
:10022000044B13B10448AFF300800123237010BDC9
:100230000400002000000000B81C000808B5084BAE
:100240001BB108480849AFF300800848036813B998
:10025000BDE80840CCE7064B002BF9D09847F7E7FC
:1002600000000000B81C0008080000200400002066
:1002700000000000104B1A6842F001021A60596831
:100280000E4A0A405A601A6822F0847222F48032C0
:100290001A601A6822F480221A605A6822F4FE0258
:1002A0005A604FF41F029A600022DA62044B4FF04A
:1002B00000629A60704700BF001002400000FFF823
:1002C00000ED00E00368F7B50546D80703D42B68B6
:1002D000990773D4F0E0B74C636803F00C03042B68
:1002E00007D0636803F00C03082B16D16368DA03A8
:1002F00013D54FF4003393FAA3F2226893FAA3F3D1
:10030000B3FA83F303F01F0322FA03F3DB07DED50E
:100310006B68002BDBD1012030E26B68B3F5803FC6
:1003200013D05BB9236823F480332360236823F45C
:100330008023236000F018FF06462FE0B3F5A02FBE
:10034000236806D143F480232360236843F4803379
:1003500005E023F480332360236823F480232360A3
:1003600000F002FF06464FF4003393FAA3F222682E
:1003700093FAA3F3B3FA83F303F01F0322FA03F310
:10038000DF07A4D400F0F0FE801B6428EBD9032023
:10039000F4E100F0E9FE801B6428F8D84FF4003344
:1003A00093FAA3F2226893FAA3F3B3FA83F303F068
:1003B0001F0322FA03F3D807EBD488E77D4C636868
:1003C00013F00C0F07D0636803F00C03082B20D147
:1003D0006368D9031DD4022393FAA3F2226893FA27
:1003E000A3F3B3FA83F303F01F0322FA03F3DA074C
:1003F00002D52B69012B8ED12268F82191FAA1F147
:10040000B1FA81F16B6922F0F8028B40134323604B
:1004100052E02A69012372B393FAA3F2B2FA82F28C
:10042000920002F1844202F58402136000F09CFE07
:100430000646022393FAA3F25E48226893FAA3F3D6
:10044000B3FA83F303F01F0322FA03F3DB0705D4A7
:1004500000F08AFE801B0228EBD998E70268F82199
:1004600091FAA1F1B1FA81F16B6922F0F8028B40A7
:100470001343036020E093FAA3F3B3FA83F39B00E2
:1004800003F1844303F584031A6000F06DFE064611
:10049000022393FAA3F2226893FAA3F3B3FA83F345
:1004A00003F01F0322FA03F3DF0705D500F05CFE1B
:1004B000801B0228ECD96AE72B681C0746D5AA697D
:1004C0003C4C01233C4912B393FAA3F2B2FA82F2F4
:1004D00041F8223000F048FE0646022393FAA3F2C8
:1004E00093FAA3F2626A93FAA3F3B3FA83F303F0E5
:1004F0001F0322FA03F3D80705D400F035FE801B52
:100500000228EAD943E7012000F034FE1EE093FA06
:10051000A3F3B3FA83F341F8232000F025FE064647
:10052000022393FAA3F293FAA3F2626A93FAA3F373
:10053000B3FA83F303F01F0322FA03F3D90705D5B7
:1005400000F012FE801B0228EAD920E72B685A0728
:1005500004D4EA69002A40F08680DEE0154C174A90
:10056000E36943F08053E361E36903F0805301934F
:10057000019B136843F48073136000F0F5FD064699
:100580000E4B1B68DB0505D400F0EEFD801B6428D4
:10059000F6D9FCE6EB68012B18D08BB9236A23F05F
:1005A00001032362236A23F00403236200F0DCFDCD
:1005B000064640E0001002408004424200700040C5
:1005C000052B236A06D143F004032362236A43F018
:1005D000010305E023F001032362236A23F00403EF
:1005E000236200F0C1FD0646022393FAA3F293FAB8
:1005F000A3F2B2FA82F242F0400252099A420CBFD0
:10060000226A626A93FAA3F3B3FA83F303F01F0337
:10061000DA40D7079DD400F0A7FD41F28833801B54
:100620009842E1D9B3E600F09FFD41F28833801B88
:1006300098423FF6ACAE022393FAA3F293FAA3F2E8
:10064000B2FA82F242F0400252099A420CBF226A88
:10065000626A93FAA3F3B3FA83F303F01F03DA4059
:10066000D007E0D475E7464C636803F00C03082B11
:100670003FF451AE022A4FF080735CD193FAA3F39A
:10068000B3FA83F39B0003F1844303F58403002250
:100690001A6000F069FD06464FF0007393FAA3F26A
:1006A000374F226893FAA3F3B3FA83F303F01F03DF
:1006B00022FA03F3D90732D42E6AB6F5803F01BF80
:1006C000F96A21F00F00A968014308BFF962636865
:1006D0006A6A23F474133243134363604FF08073E8
:1006E00093FAA3F3B3FA83F39B0003F1844303F576
:1006F000840301221A6000F037FD05464FF00073B5
:1007000093FAA3F2226893FAA3F3B3FA83F303F004
:100710001F0322FA03F3DA0707D500202EE000F0CA
:1007200023FD801B0228B7D931E600F01DFD401BD8
:100730000228E3D92BE693FAA3F3B3FA83F39B00E1
:1007400003F1844303F5840300221A6000F00CFDDA
:1007500005464FF0007393FAA3F2226893FAA3F3CD
:10076000B3FA83F303F01F0322FA03F3DB07D4D5B4
:1007700000F0FAFC401B0228EBD908E603B0F0BDFC
:100780000010024030B589B06C46214B03F11005D2
:10079000224618685968083303C2AB421446F7D1A1
:1007A0001C4B04AC03F11005224618685968083345
:1007B00003C2AB421446F7D11748416801F00C035D
:1007C000082B22D14FF4701292FAA2F2B2FA82F2FE
:1007D00001F47013D34008AA134413F8202CCB0360
:1007E00010D5C36A0F2191FAA1F1B1FA81F103F09A
:1007F0000F03CB4008A90B4413F8100C074BB3FBB5
:10080000F0F000E00648504300E0044809B030BD75
:10081000D01C0008E01C00080010024000127A0002
:1008200000093D00016870B5484C11F0020F18BF77
:10083000636805461FBF23F0F002836813436360BB
:10084000CE0709D4296848075FD5636823F4E062BE
:10085000EB681343636058E0406801280FD14FF400
:10086000003393FAA3F2226893FAA3F3B3FA83F363
:1008700003F01F0322FA03F3D90712D470BD022834
:100880000CBF4FF00073022393FAA3F2226893FA8D
:10089000A3F3B3FA83F303F01F0322FA03F3DA0797
:1008A00052D5636823F003031843606000F05CFCDA
:1008B0006B680646012B0DD1636803F00C03042B13
:1008C000C0D000F051FC41F28833801B9842F3D92C
:1008D000032070BD022B13D1636803F00C03082BB7
:1008E000B0D000F041FC41F28833801B9842F3D92C
:1008F000EEE700F039FC41F28833801B9842E7D8DC
:10090000636813F00C0FF4D19CE70B0741BF6368D9
:100910002A6923F4605343EAC20348BF6360FFF7C8
:1009200031FF6368F02292FAA2F2B2FA82F203F087
:10093000F003D340064AD35CD840064B1860002031
:1009400000F0ECFB002070BD012070BD00100240E3
:10095000F01C000800000020014B1868704700BF21
:1009600000000020084B4FF4E0625B6892FAA2F2AC
:10097000B2FA82F203F4E063D340044AD35C044A3F
:100980001068D840704700BF00100240001D0008EA
:1009900000000020084B4FF460525B6892FAA2F20C
:1009A000B2FA82F203F46053D340044AD35C044A9F
:1009B0001068D840704700BF00100240001D0008BA
:1009C0000000002010B50468A069E369A16982B243
:1009D00088B2824217BFE3699BB29BB243EA0040F0
:1009E00008BF43EA024010BD0368186A5B6A9BB205
:1009F00043EA004070470023092803D90A3801332D
:100A0000C0B2F9E740EA0310C0B2704703090A22F6
:100A100000F00F0002FB0300C0B27047022910B5BE
:100A20001CD800F2CF744FF4C873B4FBF3F300F298
:100A3000D47000EB940018446423B4FBF3F4172340
:100A40005943092391FBF3F1001B0A441044072387
:100A5000B0FBF3F3C3EBC303C01A1BE000F5FA6469
:100A60004FF4C873B4FBF3F300F2D27000EB9400C0
:100A700018446423B4FBF3F417235943092391FB6F
:100A8000F3F1001B0A4402440720B2FBF0F0C0EB74
:100A9000C000101AC0B210BD38B5044600F064FBA7
:100AA000054623685A68920607D400F05DFB401B98
:100AB000B0F57A7FF5D9032038BD5A68002042F09E
:100AC00010025A6038BD026838B55368044623F0F6
:100AD0001003536000F048FB054623685B689B06E3
:100AE00007D400F041FB401BB0F57A7FF5D9032015
:100AF00038BD002038BD38B505460C46FFF7CCFFA1
:100B000058B92B68220CA4B29A612846DC61FFF721
:100B1000DAFF003018BF012038BD012038BD38B5DC
:100B200005460C46FFF7B8FF58B92B68220CA4B253
:100B30001A6228465C62FFF7C6FF003018BF01202A
:100B400038BD012038BDF8B5044600284DD0002935
:100B50004BD0037C0226012B48D00123037446743A
:100B600008784D788F783AB93C236B434FF4616530
:100B700005FB0030C5190FE0FFF748FF0646284681
:100B8000FFF744FF3C2358434FF4616505FB06051E
:100B90003846FFF73BFF054420462946FFF7ABFFE9
:100BA000064620B104236374002323741DE02268E9
:100BB0002046536823F005035360FFF715FF431CDD
:100BC00001460DD0A8420BD201F5A831204601F50F
:100BD000C071FFF7A4FF18B104236374267404E006
:100BE000012363740023237400E001263046F8BD1E
:100BF0002DE9F8430D461746044610B90120BDE81B
:100C0000F8830029FAD003685B685E07F6D4FFF723
:100C1000D9FE4FF46162B0FBF2F302FB130281468E
:100C20003C20B2FBF0F100FB1122172B6970AA7077
:100C300072D91822B3FBF2F802FB183320462B704E
:100C4000FFF7D2FE0646013005D04E458CBFC9EBFA
:100C500006064FF0FF363E4B204603FB18994946E7
:100C6000FFF749FF0028C9D1711C204602D006EBCE
:100C7000090100E03146FFF752FF0028BED1E07BBA
:100C8000617BA27B002621F00203012B55D00529B0
:100C900053D0A1F1070EBEF1010F4ED90A294CD055
:100CA0000C294FD0042B01D0092B01D11D2A45E07E
:100CB000022925D11B2A01D8013221E01C2A18D192
:100CC00083B29A071AD14FF0640EB3FBFEF20EFB0B
:100CD000123292B282B94FF4C871B3FBF1F201FB48
:100CE00012339BB2002B13BF01221D2202210321CC
:100CF00006E01D2A04D101E01D2201E001220321AA
:100D000001364645BFD1C9B2D2B2E0736173A27356
:100D1000FFF784FE207300E02B705FB12878FFF7A7
:100D20006AFE28706878FFF766FE6870A878FFF79B
:100D300062FEA8700020BDE8F8831E2ABCD90131EC
:100D40000122DDE71E2AB7D9012201301146D7E77B
:100D500080510100F8B50D460446002855D0002901
:100D600053D0037C0220012B50D0012323746074E4
:100D7000C8784F788E781AB9E0736773A6730AE063
:100D8000FFF744FEE0733846FFF740FE60733046DD
:100D9000FFF73CFEA073E07B617BA27BFFF73EFE8A
:100DA000207328702046FFF70DFE4FF46163B0FBFF
:100DB000F3F3182B24D91825B3FBF5F3144D05FBD9
:100DC000130520462946FFF796FE064620B1042368
:100DD00063740023237418E02046FFF705FE431CCC
:100DE00001460DD0A8420BD201F5A831204601F5ED
:100DF000C071FFF794FE18B104236374267404E0F5
:100E00000123002063742074F8BD0120F8BD00BFE9
:100E1000805101002DE9F74F144600220D46ADF830
:100E200004208DF806200646002843D0002941D032
:100E3000037C012B4FF0020342D001210174437463
:100E400001A9FFF7D5FEA8BB9DF805903C2707FB3D
:100E500009F99DF804204FF4616B0BFB02939DF898
:100E600006902878994495F8018095F802A034B945
:100E700007FB08F70BFB007000EB0A010CE0FFF723
:100E8000C5FD05464046FFF7C1FD78430BFB050451
:100E90005046FFF7BBFD211849453CBF01F5A8317D
:100EA00001F5C0713046FFF73AFE28B10423737490
:100EB00000233374012004E001237374307400E0D4
:100EC000184603B0BDE8F08F38B50446A8B10268F3
:100ED000536823F00803536000F046F90546236881
:100EE0005B681B0707D400F03FF9401BB0F57A7F21
:100EF000F5D9032038BD002038BD012038BD0000E1
:100F000010B50446002847D0437C03F0FF0213B914
:100F1000027400F019FE022363742046FFF7D4FF29
:100F2000D8B92046FFF7B8FDB8B92268536823F056
:100F300007035360A268194B1AB1196B21F0010124
:100F40001963D96A21F460710A43DA626068431C4C
:100F500007D1012000F0A6F810B9042363741BE048
:100F600001382268936823F00F0343EA104393602B
:100F7000D36880B21B0C1B041843D0602046FFF7D7
:100F8000A2FD012318B104226274184610BDE0735B
:100F90006373A373637410BD012010BD006C004027
:100FA0000368F7B50546D80767D53B4C3B4AE3696C
:100FB00043F08053E361E36903F080530193019BA5
:100FC000136843F48073136000F0CEF80646334B89
:100FD0001B68D90506D400F0C7F8801B6428F6D931
:100FE000032056E0236A2C4813F4407306D1236A89
:100FF00023F440726B68134323623EE06A6802F494
:1010000040729342F3D0016A4FF4803321F4407769
:1010100093FAA3F2B2FA82F2214E4FF0010E46F893
:1010200022E093FAA3F3B3FA83F3002246F82320D5
:10103000CA070762DBD500F097F80646022393FA49
:10104000A3F293FAA3F2B2FA82F242F040025209FA
:101050009A420CBF226A626A93FAA3F3B3FA83F34B
:1010600003F01F03DA40D307C1D400F07DF841F24A
:101070008833801B9842E1D9B2E7286810F002005B
:1010800007D0054900204B6823F44042AB68134366
:101090004B6003B0F0BD00BF001002400070004084
:1010A00000044242012808B513D0022832D1FFF7CC
:1010B00071FC194B4FF480425B6892FAA2F2B2FACB
:1010C00082F203F44043D34001335B00B0FBF3F002
:1010D00008BD40F20231104A136A1940B1F5817F10
:1010E00015D003F44073B3F5007F05D1536A49F678
:1010F000404013F0020F07E0B3F5407F0AD14FF2F2
:101100002440136813F4003F08BF002008BD4FF4CB
:10111000004008BD002008BD0010024010B5044684
:10112000FFF71AFC4FF47A73B0FBF3F000F00EFBFC
:101130004FF0FF302146002200F0D8FA002010BD09
:1011400008B5032000F0C0FA0020FFF7E7FF00F029
:101150009DFB002008BD0000024A136801331360A4
:10116000704700BF20000020014B1868704700BF87
:101170002000002013B50190FFF7F6FF0446FFF7AB
:10118000F3FF019B001B9842F9D302B010BD000091
:101190000023F7B51D4601220C68AA401440944272
:1011A00040F0AC804A68122A2BD00ED8022A25D0F3
:1011B00004D84AB3012A30D1CB682EE0032A1BD0D1
:1011C000112A2AD1CB68043327E04F4EB2421BD0FC
:1011D00006D8A6F58016B24216D006F5803608E08D
:1011E0004A4EB24210D006F58036B2420CD0A6F577
:1011F0008016B24211D107E000230EE0CB6808331D
:101200000BE0CB680C3308E08B682BB1012B0CBFD3
:1012100004614461082300E00423FF2C97BF864645
:10122000A5F108070668AF0084BF4668BF004FF00D
:101230000F0202FA07FC26EA0C0603FA07F746EA51
:10124000070688BF00F1040ECEF800604F68FE006C
:1012500054D52F4E05F0030CD6F818E04FEA8C0C4D
:101260004EF0010EC6F818E0B66902FA0CF206F06C
:1012700001060196019E25F0030606F1804606F55B
:101280008036D6F808E02EEA020E224A90420ED0AE
:1012900002F5806290420CD002F5806290420AD042
:1012A00002F5806290420CBF0322042204E0002277
:1012B00002E0012200E0022202FA0CF242EA0E02EF
:1012C000B260154A17F4803F166814BF2643A64340
:1012D0001660566817F4003F14BF2643A6435660B5
:1012E000966817F4801F14BF2643A6439660D668FD
:1012F000BF024CBF344326EA0404D4600135102DEC
:101300007FF449AF03B0F0BD0000211000003110A0
:1013100000100240000801400004014090F83830FD
:1013200010B5012B4FF0020318D080F83930036854
:101330005A6822F070025A605C680A6822435A6058
:101340009A6822F080029A609C684A6822439A60F8
:10135000012380F83930002380F83830184610BD5A
:10136000036A70B523F001030362036A426884696B
:101370000D6824F0730425438C6823F00203234393
:10138000174CA0420BD004F5A054A04207D004F59E
:101390008064A04203D004F58064A0421AD1CC68D6
:1013A00023F0080323430E4C23F00403A0420BD088
:1013B00004F5A054A04207D004F58064A04203D0F5
:1013C00004F58064A04205D18E694C6922F4407214
:1013D0003443224342604A6885614263036270BDC0
:1013E000002C0140036A30B523F480730362036A62
:1013F0004268C4690D6824F073042C438D6823F49B
:10140000007343EA0523124DA84207D1CD6823F4A7
:10141000006343EA052323F4806305E00D4DA842F1
:1014200002D00D4DA8420DD14D6922F4405242EA3E
:1014300005128D6942EA051242604A68C461C263BE
:10144000036230BD05F58065A842F5D1ECE700BF29
:10145000002C01400040014000440140036A30B5C7
:1014600023F480530362036A4468C2690D6822F45E
:10147000E64242EA05228D6823F4005343EA05332D
:101480000C4DA8420BD005F5A055A84207D005F594
:101490008065A84203D005F58065A84204D14D6956
:1014A00024F4804444EA85144460C2614A680264BA
:1014B000036230BD002C0140244A036890420AD0E8
:1014C000B0F1804F07D0A2F59432904203D002F5DC
:1014D0008062904211D14A6823F0700313431B4A83
:1014E000904215D0B0F1804F12D0A2F594329042C4
:1014F0000ED002F5806290420AD0154A904207D081
:1015000002F58062904203D002F58062904203D1DE
:10151000CA6823F44073134303608B68C3620B688B
:1015200083620A4B98420BD003F5A053984207D030
:1015300003F58063984203D003F58063984201D19C
:101540000B69036301234361704700BF002C014016
:101550000040014010B50446A0B190F8393003F0C6
:10156000FF021BB980F8382000F052FA022384F8F9
:1015700039302068211DFFF79FFF012384F839309F
:10158000002010BD012010BD036A30B523F0100308
:101590000362036A426884690D6824F4E64444EAFD
:1015A00005248D6823F0200343EA0513114DA8425A
:1015B00007D1CD6823F0800343EA051323F04003ED
:1015C00005E00D4DA84202D00C4DA8420DD14D6949
:1015D00022F4406242EA85028D6942EA8502426055
:1015E0004A6884618263036230BD05F58065A84264
:1015F000F5D1ECE7002C01400040014000440140DF
:1016000038B590F838300446012B0D464FF00200F3
:1016100058D0012384F8383084F839000C2A4BD88C
:10162000DFE802F0074A4A4A174A4A4A294A4A4A20
:1016300039002068FFF794FE23689A6942F0080297
:101640009A619A6922F004029A6199692A690A43A7
:101650000FE02068FFF798FF236829699A6942F430
:1016600000629A619A6922F480629A619A6942EAF8
:1016700001229A6120E02068FFF7B4FE2368DA694E
:1016800042F00802DA61DA6922F00402DA61D9690B
:101690002A690A430FE02068FFF7E0FE2368296902
:1016A000DA6942F40062DA61DA6922F48062DA61AE
:1016B000DA6942EA0122DA610123002084F8393034
:1016C00084F8380038BD0000074A00F00700D368EE
:1016D00023F4E0631B041B0C43F0BF6343F40033AB
:1016E00043EA0023D360704700ED00E0154B70B56E
:1016F000DB68C3F30223C3F107051C1D042D28BFBB
:101700000425062C8CBF033B0023012404FA03F6B6
:10171000AC40013C013E214099403240002842EA61
:1017200001024FEA0212AFBF00F16040064B00F029
:101730000F00D2B2A5BFD2B200F561401A5480F8B2
:10174000002370BD00ED00E014ED00E00138B0F1C1
:10175000807F3FBF064B074AF02158603FBF82F8A9
:10176000231000200722986034BF1A6001207047C0
:1017700010E000E000ED00E0044B04281A680CBF04
:1017800042F0040222F004021A60704710E000E008
:10179000704708B5FFF7FCFF08BD4FF4807393FA5C
:1017A000A3F3B3FA83F39B0003F1844303F56023AF
:1017B00001221A607047000070B5044600285FD00F
:1017C00090F8353003F0FF021BB980F8342000F0A8
:1017D000FDF82268242384F835301368294D23F05E
:1017E00001031360FFF7BEF827496368B0FBF1F10E
:1017F000AB4222682E4688BF4FF49675516082BF77
:1018000069434FF47A75B1FBF5F1B34201F101017F
:10181000116208D85B00B0FBF3F0C0F30B03042B9C
:1018200038BF042013E0A16831B903EB4303B0FBD8
:10183000F3F040F4004005E019214B43B0FBF3F016
:1018400040F44040C0F30B03002B08BF0120216A85
:10185000E369D0610B431360E168236900200B4307
:101860009360A16963690B43D360136843F001037C
:1018700013602023A06384F8353084F8360070BDEF
:10188000012070BDA086010040420F00204B07B52B
:101890009A69032042F001029A619B6903F00103F7
:1018A0000193019BFFF710FF00210A466FF00B0028
:1018B000FFF71CFF00210A466FF00A00FFF716FF32
:1018C00000210A466FF00900FFF710FF00210A46C9
:1018D0006FF00400FFF70AFF00210A466FF00300D3
:1018E000FFF704FF00210A466FF00100FFF7FEFE3C
:1018F00000210A464FF0FF30FFF7F8FE054A536813
:1019000023F0E06343F08063536003B05DF804FBB1
:101910000010024000000140134B84B09A6942F06D
:1019200010029A619A6902F010020092009A9A6974
:1019300042F020029A619A6902F020020192019A13
:101940009A6942F004029A619A6902F004020292D2
:10195000029A9A6942F008029A619B6903F00803AF
:101960000393039B04B07047001002407047FEE7EA
:10197000FEE7FEE7FEE770477047704708B5FFF7E0
:10198000EBFBBDE80840FFF704BF000008B50C48BA
:101990000C4BDFF834E04FF4804280E8084000232D
:1019A0008360C360026143618361C3610362FFF7C7
:1019B00003FF18B1BDE8084000F031B908BD00BF11
:1019C0002400002000540040A08601007FB502687A
:1019D0000C4B9A4213D1C0230293122303930A485B
:1019E000032302A90593FFF7D3FB084BDA6942F4FE
:1019F0000012DA61DB6903F400130193019B07B065
:101A00005DF804FB00540040000C0140001002404F
:101A10000268084B82B09A420AD103F50333DA69AF
:101A200042F00202DA61DB6903F002030193019BD9
:101A300002B07047000400401FB50268074B9A428D
:101A400008D140230093064802236946019303937B
:101A5000FFF79EFB05B05DF804FB00BF00040040EB
:101A60000008014010B51448144B00248AB080E8E7
:101A700018008460C4600461FFF76CFD08B100F0D9
:101A8000CEF80D4801A901940294FFF747FC08B174
:101A900000F0C5F800226023074803A903930492CD
:101AA00005920792FFF7ACFD08B100F0B8F80248C4
:101AB000FFF7C2FF0AB010BD600000200004004024
:101AC0001FB51F481F494FF0FF324FF4807380E865
:101AD0000E00FFF715FA08B100F0A1F80124002369
:101AE0001748694622468DF800408DF801308DF880
:101AF0000230FFF728F808B100F091F88DF80440A3
:101B00008DF805408DF806400D48002401A90122FA
:101B10008DF80740FFF71EF908B100F080F808487B
:101B200002A901228DF808408DF809408DF80A407D
:101B30000394FFF76FF908B100F071F804B010BD1D
:101B40009C0000200028004007B50E4B02689A4216
:101B500015D1FFF722FE0C4BDA6942F00062DA6120
:101B6000DB6903F000630193019B4FF4004393FA98
:101B7000A3F3B3FA83F3054A012142F8231003B01B
:101B80005DF804FB002800400010024000044242BF
:101B900010B50A2392B00893102301240D9308A8CE
:101BA00000230C940E940F93FEF78CFB014600B1BA
:101BB000FEE70F23049005900690079003A8039377
:101BC000FEF730FE00B1FEE74FF400736846009464
:101BD0000193FFF7E5F9044600B1FEE7FEF7BCFE0E
:101BE0004FF47A73B0FBF3F0FFF7B0FD0420FFF77A
:101BF000C3FD4FF0FF3021462246FFF777FD12B0BC
:101C000010BD08B5FFF79CFAFFF7C2FFFFF784FE8F
:101C1000FFF756FFFFF726FFFFF7B8FEFEE7FEE7E8
:101C2000002103E00B4B5B58435004310A480B4B37
:101C300042189A42F6D30A4A02E0002342F8043BD3
:101C4000084B9A42F9D3FEF715FB00F00FF8FFF7A7
:101C5000D8FF7047101D000800000020040000207D
:101C600004000020B0000020FEE7000070B50E4B1D
:101C70000E4D0024ED1AAD101E46AC4204D056F8AD
:101C8000242090470134F8E700F016F8084D094B7E
:101C90000024ED1AAD101E46AC4204D056F82420A4
:101CA00090470134F8E770BD081D0008081D0008C2
:101CB0000C1D0008081D0008F8B500BFF8BC08BCE2
:101CC0009E467047F8B500BFF8BC08BC9E467047FA
:101CD00002030405060708090A0B0C0D0E0F10106D
:101CE0000102030405060708090A0B0C0D0E0F106C
:101CF00000000000000000000102030406070809BC
:081D00000000000001020304D1
:041D08003D02000890
:041D0C0015020008B4
:041D100000366E012A
:0400000508001C21B2
:00000001FF
