:020000040800F2
:1000000000500020915A0008215500082D55000885
:10001000355500083D550008455500080000000012
:100020000000000000000000000000004D55000826
:10003000595500080000000065550008715500087A
:10004000D95A0008D95A0008D95A0008D95A0008C4
:10005000D95A0008D95A0008D95A0008D95A0008B4
:10006000D95A0008D95A0008D95A0008D95A0008A4
:10007000D95A0008D95A0008D95A0008D95A000894
:10008000D95A0008D95A0008D95A0008D95A000884
:10009000D95A0008D95A0008D95A0008D95A000874
:1000A000D95A0008D95A0008D95A0008D95A000864
:1000B00081550008610B0008D95A0008D95A000878
:1000C000D95A0008D95A0008D95A0008D95A000844
:1000D000D95A0008D95A0008D95A0008D95A000834
:1000E000D95A0008D95A0008D95A0008000000005F
:1000F0000000000000000000000000000000000000
:0C01000000000000000000005FF808F1A3
:10010C00044B05481B1A062B02D9044B03B11847A4
:10011C00704700BFAB000020A800002000000000CA
:10012C0005490648091A891001EBD171491002D012
:10013C00034B03B118477047A8000020A80000200B
:10014C000000000010B5064C237843B9FFF7D8FF28
:10015C00044B13B10448AFF300800123237010BD8E
:10016C00A800002000000000486D000808B5084BEE
:10017C001BB108480849AFF300800848036813B95D
:10018C00BDE80840CCE7064B002BF9D09847F7E7C1
:10019C0000000000486D0008AC000020A800002002
:1001AC000000000080B400AF094A094BDB6843F043
:1001BC008073D360074B00225A60064A054B1B68BC
:1001CC0043F001031360BD465DF8047B704700BF2C
:1001DC00F0ED00E0001000E080B487B000AF034603
:1001EC00FB71124B5B683B61104B5B68FB60FA6800
:1001FC003B69D31A7B617B69002B03DA3A69FB6894
:10020C0013447B617A690A4B1B680A49A1FB0313EF
:10021C009B0CB2FBF3F2FB799A4200D300E0E3E7CC
:10022C001C37BD465DF8047B704700BF001000E032
:10023C000000002083DE1B4380B588B000AF03466E
:10024C00FB711A4B5A89194B9B8913439AB2174B62
:10025C00DB8913439AB2154B1B8A13439BB2FB6188
:10026C000023FB76FB79002B0DD0104B9B881A4694
:10027C00FB6913430D4AD28813430C4A128913436A
:10028C00FB610123FB76FB69BB60FB7EFB600023FB
:10029C003B6101237B61054B1A6807F1080310468B
:1002AC00194603F097FA2037BD4680BD00010020A7
:1002BC0080B582B000AF0346FB71FB79002B0AD0EE
:1002CC000C4B1A680B4B1B891046194603F010FC9B
:1002DC003220FFF781FF074B1A68064B1B8910462B
:1002EC00194603F005FC3220FFF776FF0837BD46B0
:1002FC0080BD00BF0001002080B582B000AF034676
:10030C000A46FB711346BB710120FFF795FF294B81
:10031C001A68284BDB8810461946002203F0D0FBE4
:10032C00244B1968234B9A88BB7983F00103DBB209
:10033C00084611461A4603F0C3FB1E4B19681D4BA9
:10034C001A8AFB7903F00803DB10DBB2084611466E
:10035C001A4603F0B5FB174B1968164BDA89FB7973
:10036C0003F004039B10DBB2084611461A4603F057
:10037C00A7FB104B19680F4B9A89FB7903F002030A
:10038C005B10DBB2084611461A4603F099FB094B89
:10039C001968084B5A89FB7903F00103DBB2084654
:1003AC0011461A4603F08CFB0120FFF781FF08373A
:1003BC00BD4680BD0001002080B582B000AF00209A
:1003CC00FFF73AFF194B1968184B9A88174B1B8A81
:1003DC0013439BB208461946002203F071FB134BE2
:1003EC001A68124BDB8810461946012203F068FB91
:1003FC000020FFF75DFF0D4B1A680C4B1B8A104653
:10040C00194603F045FB0346FB710020FFF750FF34
:10041C000120FFF74DFFFB79012B01D1012300E0F7
:10042C00002318460837BD4680BD00BF00010020E0
:10043C0090B482B000AF0446084611461A462346D3
:10044C00FB710346BB710B46BB801346FB70FB79FB
:10045C00022B01D10223FB70FB78013BFB702D4B6F
:10046C001B889BB218462C4B1B889BB25A1C2B4BDF
:10047C0083FB02139911D317CB1A40F2F31101FB32
:10048C0003F3D31A984240D0234B1B889BB21946D6
:10049C00234A0B465B000B445B001344FA791A7039
:1004AC001D4B1B889BB219461D4A0B465B000B4427
:1004BC005B001344BA795A70174B1B889BB21946D0
:1004CC00174A0B465B000B445B001344BA885A80F6
:1004DC00114B1B889BB21946114A0B465B000B440F
:1004EC005B001344FA781A710B4B1B889BB20133D7
:1004FC009BB20A4AA2FB0312920940F2F31101FBD0
:10050C0002F29B1A9AB2044B1A800837BD4690BC73
:10051C00704700BFCC0C0020CE0C0020396BD520CE
:10052C001401002080B400AF0E4B1B889AB20E4B06
:10053C001B889BB29A4210D00A4B1B889BB201338A
:10054C009BB20A4AA2FB0312920940F2F31101FB7F
:10055C0002F29B1A9AB2034B1A80BD465DF8047BDB
:10056C00704700BFCC0C0020CE0C0020396BD5207E
:10057C0080B582B000AF324B1B889AB2314B1B88CE
:10058C009BB29A4258D02E4B1B889BB21A461346EC
:10059C005B0013445B002C4A13447B607B681B7824
:1005AC00DBB2022B15D0032B21D0012B44D17B685D
:1005BC005B889BB2002B07D07B685B889BB2013BAE
:1005CC009AB27B685A8037E0FFF7ACFFFFF7D0FF99
:1005DC0032E0FFF7F1FE034683F00103DBB2002BA0
:1005EC0004D0FFF79FFFFFF7C3FF25E024E07B68F3
:1005FC001B79DBB2012B0CD17B685B889BB21B098E
:10060C009BB2DAB27B685B78DBB210461946FFF717
:10061C0073FE7B685B889BB2DBB203F00F03DAB22C
:10062C007B685B78DBB210461946FFF765FEFFF777
:10063C0079FFFFF79DFF00BF0837BD4680BD00BFA7
:10064C00CC0C0020CE0C00201401002080B584B00E
:10065C0000AF0346FB71FB79C3F16403FB60FB68DD
:10066C00094AA2FB03235B09FB60FB79002B14BF37
:10067C0001230023DBB2054880211A4603F020FA3F
:10068C001037BD4680BD00BF1F85EB5100080140EF
:10069C0080B500AF0320012101220223FFF7C8FE21
:1006AC000220002100220023FFF7C2FE80BD00BF04
:1006BC0080B500AF0320012102220223FFF7B8FE10
:1006CC000220002100220023FFF7B2FE80BD00BFF4
:1006DC0080B584B000AF0346FB710B46BB7113466B
:1006EC007B710823FB81FB79002B04D0FB8943F041
:1006FC000403FB8106E00021114B0A461A80114BC2
:10070C000A461A80BB79002B03D0FB8943F0020305
:10071C00FB817B79002B03D0FB8943F00103FB8128
:10072C00FB89032001211A460223FFF781FE0220D8
:10073C00002100220023FFF77BFE1037BD4680BD51
:10074C00CE0C0020CC0C002080B584B000AF03464A
:10075C000A46FB711346BB718023FB81114A07F1DA
:10076C00080310681860BB799AB2FB7907F1100185
:10077C000B4413F8083C9BB213449AB2FB89134305
:10078C00FB81FB89032001211A460223FFF750FE4F
:10079C000220002100220023FFF74AFE1037BD463D
:1007AC0080BD00BF606D000880B584B000AF03460B
:1007BC003960FB714023BB81FB799BB2DB009AB2A1
:1007CC00BB891343BB81BB89032001211A46022339
:1007DC00FFF72EFE0120012101220123FFF728FE45
:1007EC000023FB7313E0FB7B3A6813441B789BB22A
:1007FC00032000211A460223FFF71AFE02200021D3
:10080C0000220023FFF714FEFB7B0133FB73FB7B01
:10081C00072BE8D91037BD4680BD00BF80B582B02C
:10082C0000AF0346FB71FB799BB2032000211A46F3
:10083C000223FFF7FDFD0220002100220023FFF719
:10084C00F7FD0837BD4680BD80B584B000AF786039
:10085C000023FB7313E0FB7B7A6813441B789BB279
:10086C00032000211A460223FFF7E2FD022000219B
:10087C0000220023FFF7DCFDFB7B0133FB73FB7BCA
:10088C007A6813441B78002BE5D11037BD4680BD28
:10089C000FB480B58CB000AF07F13C033B603B1D3F
:1008AC001846B96B3A6805F071F9B8620023FB621F
:1008BC0012E03A1DFB6A13441B7887F8273097F82F
:1008CC0027300A2B00D10BE097F827301846FFF79A
:1008DC00A5FFFB6A0133FB62FA6ABB6A9A42E8DB4A
:1008EC003037BD46BDE8804004B0704780B58AB053
:1008FC0000AFF860084611461A4603467B810B464A
:10090C003B811346FB80894AFB681360874A7B89CD
:10091C009380864A3B89D380844AFB881381834A1F
:10092C003B8E5381814ABB8E9381804A3B8FD3810E
:10093C007E4ABB8F13827D4A97F8403093747B4A72
:10094C0097F84430D374FB68794A93420CD1794AB6
:10095C00784B9B6943F004039361764B9B6903F0DE
:10096C0004037B627B6A44E0FB68734A93420CD1BC
:10097C00704A704B9B6943F0080393616D4B9B6904
:10098C0003F008033B623B6A33E0FB686B4A93421B
:10099C000CD1684A674B9B6943F010039361654B1C
:1009AC009B6903F01003FB61FB6922E0FB68644A5E
:1009BC0093420CD15F4A5F4B9B6943F020039361D8
:1009CC005C4B9B6903F02003BB61BB6911E0FB68C6
:1009DC005C4A93420CD1574A564B9B6943F04003F7
:1009EC009361544B9B6903F040037B617B6900E08E
:1009FC0099E0FFF7D7FB4F4A4E4BDB6943F00203FC
:100A0C00D3614C4BDB6903F002033B613B691D2056
:100A1C000021012203F032FE1D2003F04BFE4A4B55
:100A2C004A4A1A60484B0B22DA6001F003FD024679
:100A3C00474BA3FB0223DB0B013B434A5360424B66
:100A4C0000221A61404B00229A603F4803F0F4F8F0
:100A5C003D4803F01DF90120012164220123FFF719
:100A6C00E7FC0320012103220123FFF7E1FC012015
:100A7C00002105220023FFF7DBFC032001210322C8
:100A8C000123FFF7D5FC0120002101220023FFF7F1
:100A9C00CFFC0320012103220123FFF7C9FC012015
:100AAC00002101220023FFF7C3FC032001210222B5
:100ABC000123FFF7BDFC0120002101220023FFF7D9
:100ACC00B7FC1A4B9A7C194BDB7C1343DBB243F01B
:100ADC002003DBB29BB2032001211A460223FFF74D
:100AEC00A7FC0120002101220023FFF7A1FC032019
:100AFC0001210C220223FFF79BFC01200021012283
:100B0C000023FFF795FC0320012106220223FFF7A7
:100B1C008FFC0220002100220023FFF789FCFFF745
:100B2C00B7FDFFF7C5FD2837BD4680BD000100208D
:100B3C000008014000100240000C01400010014070
:100B4C000014014000180140C400002000040040C3
:100B5C0083DE1B4380B500AFFFF70AFD014803F0AD
:100B6C0081F980BDC400002080B500AF00F050F8C2
:100B7C0080BD00BF80B500AF03480449002202F0DD
:100B8C0065F8024B184680BD480E0020F00C002082
:100B9C0080B582B000AF0346FB710B46BB711346A8
:100BAC007B71094AFB791370074ABB795370064A6B
:100BBC007B79937005480449002201F0AFFF024B8A
:100BCC0018460837BD4680BDF00C0020480E0020AA
:100BDC0080B582B000AF78600448796802F0B4FF49
:100BEC00034618460837BD4680BD00BF480E00209E
:100BFC0080B582B000AF78603960044879683A6893
:100C0C0002F088FF0837BD4680BD00BF480E0020AB
:100C1C0080B582B000AF0320FFF7DAFF03467B609C
:100C2C00034B1A463B1D1B8813800837BD4680BDFD
:100C3C00EC0C002080B400AF024B1846BD465DF8AA
:100C4C00047B7047EC0C002080B584B000AF0346E9
:100C5C00FB710B46BB7113467B71FB7903F00103EF
:100C6C00D9B2124A137861F300031370BB7903F005
:100C7C001F03D9B20D4A137861F3450313707B79C6
:100C8C0003F01F03D9B2094A537861F3040353707C
:100C9C00064A07F10C0312881A80FB6803201946D8
:100CAC00FFF7A6FF1037BD4680BD00BFEC0C00203F
:100CBC0080B500AF174B1B78002B24D002F068FDD9
:100CCC000246154BA3FB02239B0903F00103002BE7
:100CDC0012D1124B1B8801339AB2104B1A800F4B56
:100CEC001B880A2B15D90E484FF4807102F000FFB7
:100CFC000A4B00221A800CE009484FF48071002244
:100D0C0002F0DEFE05E006484FF48071002202F08E
:100D1C00D7FE80BDD00C0020D34D6210D20C002029
:100D2C000008014080B400AF034B01221A70BD468D
:100D3C005DF8047B704700BFD00C002080B400AF7E
:100D4C00034B00221A70BD465DF8047B704700BF50
:100D5C00D00C002080B582B002AF184B184A0C336F
:100D6C0007CA83E80700154B164A07CA83E8070031
:100D7C00124B154A183307CA83E807000F4B134A66
:100D8C00243307CA83E80700114B00221A6004338E
:100D9C0000221A60043300221A60043300221A6005
:100DAC000433012300930A4800213C22002300F065
:100DBC0013F8084B064A1A60BD4680BD040D00208E
:100DCC00646D0008706D00087C6D0008886D00086B
:100DDC00F40C0020340D002080B485B000AFF86016
:100DEC00084611461A4603467B810B463B81134647
:100DFC00FB80FB68094A1A60FB687A899A80FB6859
:100E0C003A89DA80FB68FA881A81FB683A7E9A7212
:100E1C001437BD465DF8047B704700BF00080040E6
:100E2C0080B582B000AF03460A46FB711346BB7116
:100E3C00064B1B68002B06D0044B1B68F979BA795A
:100E4C000846114698470837BD4680BDD40C002093
:100E5C0080B582B000AF03460A46FB801346BB80C8
:100E6C00074B1B68002B07D0054B1B68F988B7F99B
:100E7C0004200846114698470837BD4680BD00BF80
:100E8C00D80C002080B586B000AF0023FB756EE057
:100E9C00FA7D13465B0013449B00864A1344FB60A7
:100EAC00FA7D844913465B0013449B000B441A687B
:100EBC00FB689B881046194602F0EAFD03461A4669
:100ECC00FB689B799A4229D1FB68DB79002B08D10E
:100EDC00FB680122DA7100F01DF90246FB689A608A
:100EEC0042E000F017F90246FB689B68D31AB3F591
:100EFC00FA7F05D9FB7D18460821FFF791FF33E0F7
:100F0C0000F008F90246FB689B68D31A1E2B2BD9FC
:100F1C00FB7D18460221FFF783FF25E0FB68DB7998
:100F2C00012B1BD100F0F6F80246FB689B68D31A24
:100F3C00B3F5FA7F05D9FB7D18460421FFF770FF46
:100F4C000CE000F0E7F80246FB689B68D31A1E2BF6
:100F5C0004D9FB7D18460121FFF762FFFB680022D4
:100F6C00DA71FB6800229A60FB7D0133FB75FB7D17
:100F7C00032B8DD9504B1B68002B00F097804E4BE8
:100F8C001B68BB60BB68DB68002B03D1BB681B68AC
:100F9C0080225A6200F0BEF80246BB68DB68D31AA6
:100FAC007B607B68642B40F28180BB681B685B6A4A
:100FBC009BB2803B9BB2BB82BB689B7A002B3FD021
:100FCC00B7F914304FF47A7202FB03F27B6892FB90
:100FDC00F3F37B80B7F90230002BB8BF5B427B8008
:100FEC00B7F90230392B06DDBB8A1A46920013443E
:100FFC009BB2BB8224E0B7F902302F2B04DDBB8AF5
:10100C009B009BB2BB821BE0B7F90230252B06DD9F
:10101C00BB8A1A46520013449BB2BB8210E0B7F94C
:10102C0002301B2B04DDBB8A5B009BB2BB8207E04A
:10103C00B7F90230122B03DDBB8A01339BB2BB82A2
:10104C00BB689B889AB2BB8A13449BB27B82BB68F9
:10105C00DB88B7F912201BB29A4206DDBB68DB882D
:10106C00002B02D0BB681B897B82BB681B89B7F93C
:10107C0012201BB29A4206DABB68DB88002B02D026
:10108C00BB68DB887B82BB687A8A9A807A8AB7F9DC
:10109C00143010461946FFF7DBFEBB681B68802234
:1010AC005A6200F037F80246BB68DA601837BD4662
:1010BC0080BD00BF040D0020340D002080B483B02F
:1010CC0000AF7860034A7B6813600C37BD465DF84F
:1010DC00047B7047D40C002080B483B000AF7860E0
:1010EC0039607B68002B03D0074A7B68136002E0F1
:1010FC00054B064A1A60064A3B6813600C37BD461E
:10110C005DF8047B704700BF340D0020F40C002008
:10111C00D80C002080B500AF02F03AFB034618460D
:10112C0080BD00BF80B400AF154A154B1B6843F05F
:10113C00010313601249124B5A68124B13404B6057
:10114C000F4A0F4B1B6823F0847323F48033136016
:10115C000B4A0B4B1B6823F480231360084A084B83
:10116C005B6823F4FE035360054B4FF41F029A6037
:10117C00054B4FF000629A60BD465DF8047B7047EA
:10118C00001002400000FFF800ED00E080B5E4B074
:10119C0000AF3B1D18600023C7F88C313B1D1B684A
:1011AC001B6803F00103002B00F07281A94B5B68F4
:1011BC0003F00C03042B0BD0A64B5B6803F00C0361
:1011CC00082B5ED1A34B5B6803F48033002B58D003
:1011DC004FF40033C7F88831D7F8883193FAA3F36A
:1011EC00C7F88431D7F88431B3FA83F3DBB243F018
:1011FC002003DBB2DBB25B09DBB2012B02D1954BD6
:10120C001B681BE04FF40033C7F88031D7F88031EE
:10121C0093FAA3F3C7F87C31D7F87C31B3FA83F394
:10122C00DBB243F02003DBB2DBB25B09DBB2022B97
:10123C0002D1884B1B6A01E0864B5B6A4FF400328B
:10124C00C7F87821D7F8782192FAA2F2C7F874215E
:10125C00D7F87421B2FA82F2D2B242F02002D2B2A2
:10126C00D2B202F01F02D34003F00103002B07D0CF
:10127C003B1D1B685B68002B02D1012300F09BBE59
:10128C0006E13B1D1B685B68B3F5803F06D1714AD4
:10129C00704B1B6843F48033136030E03B1D1B68BC
:1012AC005B68002B0CD16B4A6A4B1B6823F48033B0
:1012BC001360684A674B1B6823F4802313601EE09D
:1012CC003B1D1B685B68B3F5A02F0CD1614A614BC9
:1012DC001B6843F4802313605E4A5E4B1B6843F427
:1012EC00803313600BE05B4A5A4B1B6823F480334A
:1012FC001360584A574B1B6823F4802313603B1D23
:10130C001B685B68002B60D002F042FAC7F88C01B6
:10131C000AE002F03DFA0246D7F88C31D31A642B5E
:10132C0002D9032300F047BE4FF40033C7F87031E5
:10133C00D7F8703193FAA3F3C7F86C31D7F86C3146
:10134C00B3FA83F3DBB243F02003DBB2DBB25B090D
:10135C00DBB2012B02D13F4B1B681BE04FF4003377
:10136C00C7F86831D7F8683193FAA3F3C7F864313A
:10137C00D7F86431B3FA83F3DBB243F02003DBB26A
:10138C00DBB25B09DBB2022B02D1324B1B6A01E0F0
:10139C00304B5B6A4FF40032C7F86021D7F86021FC
:1013AC0092FAA2F2C7F85C21D7F85C21B2FA82F269
:1013BC00D2B242F02002D2B2D2B202F01F02D3401B
:1013CC0003F00103002BA4D062E002F0E1F9C7F8AE
:1013DC008C010AE002F0DCF90246D7F88C31D31A02
:1013EC00642B02D9032300F0E6BD4FF40033C7F899
:1013FC005831D7F8583193FAA3F3C7F85431D7F8CA
:10140C005431B3FA83F3DBB243F02003DBB2DBB22B
:10141C005B09DBB2012B02D10E4B1B681EE04FF4B3
:10142C000033C7F85031D7F8503193FAA3F3C7F80B
:10143C004C31D7F84C31B3FA83F3DBB243F02003D1
:10144C00DBB2DBB25B09DBB2022B05D1014B1B6AB1
:10145C0004E000BF00100240C64B5B6A4FF4003240
:10146C00C7F84821D7F8482192FAA2F2C7F84421CC
:10147C00D7F84421B2FA82F2D2B242F02002D2B2B0
:10148C00D2B202F01F02D34003F00103002BA1D112
:10149C003B1D1B681B6803F00203002B00F08781C7
:1014AC00B44B5B6803F00C03002B0BD0B14B5B68A7
:1014BC0003F00C03082B74D1AE4B5B6803F4803340
:1014CC00002B6ED10223C7F84031D7F8403193FA84
:1014DC00A3F3C7F83C31D7F83C31B3FA83F3DBB252
:1014EC0043F02003DBB2DBB25B09DBB2012B02D190
:1014FC00A04B1B681AE00223C7F83831D7F83831F3
:10150C0093FAA3F3C7F83431D7F83431B3FA83F331
:10151C00DBB243F02003DBB2DBB25B09DBB2022BA4
:10152C0002D1944B1B6A01E0924B5B6A0222C7F812
:10153C003021D7F8302192FAA2F2C7F82C21D7F833
:10154C002C21B2FA82F2D2B242F02002D2B2D2B242
:10155C0002F01F02D34003F00103002B07D03B1D08
:10156C001B681B69012B02D0012300F024BD8148AC
:10157C00804B1B6823F0F8023B1D1B685969F8234C
:10158C00C7F82831D7F8283193FAA3F3C7F82431D8
:10159C00D7F82431B3FA83F301FA03F3134303604E
:1015AC0005E13B1D1B681B69002B00F08C8001239F
:1015BC00C7F82031D7F8203193FAA3F3C7F81C31C0
:1015CC00D7F81C31B3FA83F39B0003F1844303F582
:1015DC0084031A460123136002F0DAF8C7F88C0171
:1015EC000AE002F0D5F80246D7F88C31D31A022B58
:1015FC0002D9032300F0DFBC0223C7F81831D7F857
:10160C00183193FAA3F3C7F81431D7F81431B3FA9D
:10161C0083F3DBB243F02003DBB2DBB25B09DBB25A
:10162C00012B02D1534B1B681AE00223C7F810316F
:10163C00D7F8103193FAA3F3C7F80C31D7F80C3163
:10164C00B3FA83F3DBB243F02003DBB2DBB25B090A
:10165C00DBB2022B02D1474B1B6A01E0454B5B6AA4
:10166C000222C7F80821D7F8082192FAA2F2C7F88B
:10167C000421D7F80421B2FA82F2D2B242F020024D
:10168C00D2B2D2B202F01F02D34003F00103002BFE
:10169C00A7D03848374B1B6823F0F8023B1D1B685A
:1016AC005969F823C7F80031D7F8003193FAA3F33E
:1016BC00C7F8FC30D7F8FC30B3FA83F301FA03F324
:1016CC001343036073E00123C7F8F830D7F8F83000
:1016DC0093FAA3F3C7F8F430D7F8F430B3FA83F3E2
:1016EC009B0003F1844303F584031A460023136023
:1016FC0002F04EF8C7F88C010AE002F049F80246F5
:10170C00D7F88C31D31A022B02D9032300F053BC27
:10171C000223C7F8F030D7F8F03093FAA3F3C7F8E8
:10172C00EC30D7F8EC30B3FA83F3DBB243F02003A0
:10173C00DBB2DBB25B09DBB2012B02D10D4B1B68B8
:10174C001CE00223C7F8E830D7F8E83093FAA3F38B
:10175C00C7F8E430D7F8E430B3FA83F3DBB243F0E4
:10176C002003DBB2DBB25B09DBB2022B04D1014BF1
:10177C001B6A03E000100240B74B5B6A0222C7F8F9
:10178C00E020D7F8E02092FAA2F2C7F8DC20D7F8D4
:10179C00DC20B2FA82F2D2B242F02002D2B2D2B241
:1017AC0002F01F02D34003F00103002BA5D13B1D17
:1017BC001B681B6803F00803002B00F0E9803B1D3D
:1017CC001B689B69002B73D00123C7F8D830D7F85E
:1017DC00D83093FAA3F3C7F8D430D7F8D430B3FA8F
:1017EC0083F39B001A469D4B13441A460123136046
:1017FC0001F0CEFFC7F88C0109E001F0C9FF0246E9
:10180C00D7F88C31D31A022B01D90323D3E302234B
:10181C00C7F8D030D7F8D03093FAA3F3C7F8CC3050
:10182C00D7F8CC30B3FA83F3DBB243F06003DBB20E
:10183C00DBB25B09DBB2012B02D1874B1B681AE0D0
:10184C000223C7F8C830D7F8C83093FAA3F3C7F807
:10185C00C430D7F8C430B3FA83F3DBB243F060037F
:10186C00DBB2DBB25B09DBB2022B02D17A4B1B6A17
:10187C0001E0794B5B6A0222C7F8C020D7F8C02080
:10188C0092FAA2F2C7F8BC20D7F8BC20B2FA82F2C6
:10189C00D2B242F06002D2B2D2B202F01F02D340F6
:1018AC0003F00103002BA8D0012001F07DFF6FE0B5
:1018BC000123C7F8B830D7F8B83093FAA3F3C7F8B8
:1018CC00B430D7F8B430B3FA83F39B001A46634BA9
:1018DC0013441A460023136001F05AFFC7F88C0119
:1018EC0009E001F055FF0246D7F88C31D31A022BD0
:1018FC0001D903235FE30223C7F8B030D7F8B03027
:10190C0093FAA3F3C7F8AC30D7F8AC30B3FA83F33F
:10191C00DBB243F06003DBB2DBB25B09DBB2012B61
:10192C0002D14D4B1B681AE00223C7F8A830D7F838
:10193C00A83093FAA3F3C7F8A430D7F8A430B3FABD
:10194C0083F3DBB243F06003DBB2DBB25B09DBB2E7
:10195C00022B02D1404B1B6A01E03F4B5B6A022217
:10196C00C7F8A020D7F8A02092FAA2F2C7F89C20C2
:10197C00D7F89C20B2FA82F2D2B242F06002D2B214
:10198C00D2B202F01F02D34003F00103002BA8D106
:10199C003B1D1B681B6803F00403002B00F0448103
:1019AC002D4A2D4BDB6943F08053D3612A4BDB6905
:1019BC0003F0805207F108031A6007F108031B6853
:1019CC00274A274B1B6843F48073136001F0E0FE39
:1019DC00C7F88C0109E001F0DBFE0246D7F88C3128
:1019EC00D31A642B01D90323E5E21D4B1B6803F4C6
:1019FC008073002BEFD03B1D1B68DB68012B06D1DD
:101A0C00154A154B1B6A43F00103136236E03B1D6C
:101A1C001B68DB68002B0CD10F4A0F4B1B6A23F0A1
:101A2C00010313620C4A0C4B1B6A23F00403136270
:101A3C0024E03B1D1B68DB68052B13D1064A064BC3
:101A4C001B6A43F004031362034A034B1B6A43F003
:101A5C000103136212E000BF0010024080044242F6
:101A6C0000700040AC4AAC4B1B6A23F001031362BC
:101A7C00A94AA94B1B6A23F0040313623B1D1B6884
:101A8C00DB68002B66D001F083FEC7F88C010BE0FD
:101A9C0001F07EFE0246D7F88C31D31A41F288321F
:101AAC00934201D9032386E20223C7F89830D7F872
:101ABC00983093FAA3F3C7F89430D7F89430B3FA6C
:101ACC0083F3DBB243F04003DBB2DBB25B09DBB286
:101ADC00012B02D1904B1B681EE007F190030222F0
:101AEC001A6007F190031B6893FAA3F207F18C03B9
:101AFC001A6007F18C031B68B3FA83F3DBB243F073
:101B0C004003DBB2DBB25B09DBB2022B02D1824BAE
:101B1C001B6A01E0804B5B6A07F1880202211160AD
:101B2C0007F18802126892FAA2F107F1840211609F
:101B3C0007F184021268B2FA82F2D2B242F0400289
:101B4C00D2B2D2B202F01F02D34003F00103002B39
:101B5C009ED069E001F01CFEC7F88C010BE001F08F
:101B6C0017FE0246D7F88C31D31A41F288329342D1
:101B7C0001D903231FE207F1800302221A6007F147
:101B8C0080031B6893FAA3F207F17C031A6007F138
:101B9C007C031B68B3FA83F3DBB243F04003DBB284
:101BAC00DBB25B09DBB2012B02D15B4B1B681EE085
:101BBC0007F1780302221A6007F178031B6893FA85
:101BCC00A3F207F174031A6007F174031B68B3FAEC
:101BDC0083F3DBB243F04003DBB2DBB25B09DBB275
:101BEC00022B02D14C4B1B6A01E04B4B5B6A07F199
:101BFC0070020221116007F17002126892FAA2F1D0
:101C0C0007F16C02116007F16C021268B2FA82F2F1
:101C1C00D2B242F04002D2B2D2B202F01F02D34092
:101C2C0003F00103002B9AD13B1D1B68DB69002BD1
:101C3C0000F0C081384B5B6803F00C03082B00F0FC
:101C4C00B7813B1D1B68DB69022B40F02B8107F130
:101C5C0068034FF080721A6007F168031B6893FAEF
:101C6C00A3F207F164031A6007F164031B68B3FA6B
:101C7C0083F39B0003F1844303F584031A4600238A
:101C8C00136001F085FDC7F88C0109E001F080FDBF
:101C9C000246D7F88C31D31A022B01D903238AE1DF
:101CAC0007F160034FF000721A6007F160031B68C4
:101CBC0093FAA3F207F15C031A6007F15C031B684B
:101CCC00B3FA83F3DBB243F02003DBB2DBB25B0984
:101CDC00DBB2012B02D1104B1B6821E007F158033A
:101CEC004FF000721A6007F158031B6893FAA3F2C5
:101CFC0007F154031A6007F154031B68B3FA83F31A
:101D0C00DBB243F02003DBB2DBB25B09DBB2022BAC
:101D1C0004D1014B1B6A03E000100240A84B5B6A24
:101D2C0007F150024FF00071116007F15002126878
:101D3C0092FAA2F107F14C02116007F14C02126801
:101D4C00B2FA82F2D2B242F02002D2B2D2B202F095
:101D5C001F02D34003F00103002B97D13B1D1B68DE
:101D6C001B6AB3F5803F09D19549954B5B6823F409
:101D7C0000323B1D1B689B6813434B609048904B93
:101D8C005B6823F474123B1D1B68196A3B1D1B68AE
:101D9C005B6A0B431343436007F148034FF08072B7
:101DAC001A6007F148031B6893FAA3F207F1440386
:101DBC001A6007F144031B68B3FA83F39B0003F129
:101DCC00844303F584031A460123136001F0E0FCFD
:101DDC00C7F88C0109E001F0DBFC0246D7F88C3126
:101DEC00D31A022B01D90323E5E007F140034FF08E
:101DFC0000721A6007F140031B6893FAA3F207F113
:101E0C003C031A6007F13C031B68B3FA83F3DBB2A3
:101E1C0043F02003DBB2DBB25B09DBB2012B02D156
:101E2C00674B1B681FE007F138034FF000721A6014
:101E3C0007F138031B6893FAA3F207F134031A6015
:101E4C0007F134031B68B3FA83F3DBB243F02003CE
:101E5C00DBB2DBB25B09DBB2022B02D1584B1B6A43
:101E6C0001E0574B5B6A07F130024FF000711160D3
:101E7C0007F13002126892FAA2F107F12C021160FC
:101E8C0007F12C021268B2FA82F2D2B242F02002AE
:101E9C00D2B2D2B202F01F02D34003F00103002BE6
:101EAC0099D087E007F128034FF080721A6007F190
:101EBC0028031B6893FAA3F207F124031A6007F1B5
:101ECC0024031B68B3FA83F39B0003F1844303F5EB
:101EDC0084031A460023136001F05AFCC7F88C01E6
:101EEC0009E001F055FC0246D7F88C31D31A022BCD
:101EFC0001D903235FE007F120034FF000721A6051
:101F0C0007F120031B6893FAA3F207F11C031A6074
:101F1C0007F11C031B68B3FA83F3DBB243F0200315
:101F2C00DBB2DBB25B09DBB2012B02D1244B1B68A9
:101F3C001FE007F118034FF000721A6007F1180345
:101F4C001B6893FAA3F207F114031A6007F1140348
:101F5C001B68B3FA83F3DBB243F02003DBB2DBB2D2
:101F6C005B09DBB2022B02D1154B1B6A01E0144B4F
:101F7C005B6A07F110024FF00071116007F110025B
:101F8C00126892FAA2F107F10C02116007F10C022F
:101F9C001268B2FA82F2D2B242F02002D2B2D2B2BB
:101FAC0002F01F02D34003F00103002B99D101E092
:101FBC00012300E00023184607F5C877BD4680BD15
:101FCC000010024080B598B000AF786039600023F3
:101FDC00FB65A64B1B6803F007023B689A4210D2C4
:101FEC00A249A24B1B6823F007023B6813430B600A
:101FFC009E4B1B6803F007023B689A4201D00123F9
:10200C0091E17B681B6803F00203002B08D0984910
:10201C00974B5B6823F0F0027B689B6813434B6023
:10202C007B681B6803F00103002B00F029817B689F
:10203C005B68012B46D14FF40033BB65BB6D93FA43
:10204C00A3F37B657B6DB3FA83F3DBB243F0200320
:10205C00DBB2DBB25B09DBB2012B02D1844B1B6818
:10206C0017E04FF400333B653B6D93FAA3F3FB642D
:10207C00FB6CB3FA83F3DBB243F02003DBB2DBB2CD
:10208C005B09DBB2022B02D1794B1B6A01E0784B66
:10209C005B6A4FF40032BA64BA6C92FAA2F27A64B8
:1020AC007A6CB2FA82F2D2B242F02002D2B2D2B23E
:1020BC0002F01F02D34003F00103002B40F08F808D
:1020CC00012330E17B685B68022B45D14FF0007334
:1020DC003B643B6C93FAA3F3FB63FB6BB3FA83F3A4
:1020EC00DBB243F02003DBB2DBB25B09DBB2012BCA
:1020FC0002D15F4B1B6817E04FF00073BB63BB6BE7
:10210C0093FAA3F37B637B6BB3FA83F3DBB243F0F9
:10211C002003DBB2DBB25B09DBB2022B02D1544BE6
:10212C001B6A01E0524B5B6A4FF000723A633A6BE8
:10213C0092FAA2F2FA62FA6AB2FA82F2D2B242F0DD
:10214C002002D2B2D2B202F01F02D34003F001033C
:10215C00002B44D10123E6E00223BB62BB6A93FA55
:10216C00A3F37B627B6AB3FA83F3DBB243F0200305
:10217C00DBB2DBB25B09DBB2012B02D13C4B1B683F
:10218C0016E002233B623B6A93FAA3F3FB61FB6903
:10219C00B3FA83F3DBB243F02003DBB2DBB25B09AF
:1021AC00DBB2022B02D1324B1B6A01E0304B5B6A73
:1021BC000222BA61BA6992FAA2F27A617A69B2FA27
:1021CC0082F2D2B242F02002D2B2D2B202F01F029C
:1021DC00D34003F00103002B01D10123A3E02449D8
:1021EC00234B5B6823F003027B685B6813434B60F3
:1021FC0001F0CEFAF8657B685B68012B12D10AE01E
:10220C0001F0C6FA0246FB6DD31A41F288329342B2
:10221C0001D9032387E0164B5B6803F00C03042BF6
:10222C00EED12DE07B685B68022B12D10AE001F045
:10223C00AFFA0246FB6DD31A41F28832934201D9B0
:10224C00032370E00A4B5B6803F00C03082BEED100
:10225C0016E00FE001F09CFA0246FB6DD31A41F236
:10226C008832934206D903235DE000BF0020024070
:10227C00001002402E4B5B6803F00C03002BE9D1DD
:10228C002C4B1B6803F007023B689A4210D9294972
:10229C00284B1B6823F007023B6813430B60254B4C
:1022AC001B6803F007023B689A4201D001233AE015
:1022BC007B681B6803F00403002B08D01C491C4BE3
:1022CC005B6823F4E0627B68DB6813434B607B68DC
:1022DC001B6803F00803002B09D01549144B5B68ED
:1022EC0023F460527B681B69DB0013434B6000F0E6
:1022FC0027F801460E4B5B6803F0F002F0233B61BC
:10230C003B6993FAA3F3FB60FB68B3FA83F322FAFD
:10231C0003F3094AD35C21FA03F3084A1360002043
:10232C0001F00CFA002318466037BD4680BD00BF93
:10233C0000100240002002406C6E000800000020DB
:10234C0090B48EB000AF364B3C1D186859689A6833
:10235C00DB680FC4334A3B4612881A800023FB62A9
:10236C000023BB6200237B6300237B6200233B635F
:10237C002D4B5B68FB62FB6A03F00C03042B02D051
:10238C00082B03D043E0294B3B6343E0FB6A03F487
:10239C0070124FF470133B623B6A93FAA3F3FB6128
:1023AC00FB69B3FA83F322FA03F307F138021344FF
:1023BC0013F8343C7B62FB6A03F48033002B1ED091
:1023CC00194B5B6803F400324FF40033BB61BB69FB
:1023DC0093FAA3F37B617B69B3FA83F322FA03F3D9
:1023EC0007F13802134413F8383CBB620F4ABB6A3E
:1023FC00B2FBF3F37A6A02FB03F37B6304E07B6AC0
:10240C000A4A02FB03F37B637B6B3B6302E0084BE2
:10241C003B6300BF3B6B18463837BD4690BC7047DA
:10242C00946D0008A46D00080010024000093D00E6
:10243C0000127A0080B400AF034B1B681846BD46EF
:10244C005DF8047B704700BF0000002080B582B0AF
:10245C0000AFFFF7EFFF01460B4B5B6803F4E06244
:10246C004FF4E0637B607B6893FAA3F33B603B68BB
:10247C00B3FA83F322FA03F3044AD35C21FA03F38D
:10248C0018460837BD4680BD001002407C6E00081F
:10249C0080B582B000AFFFF7CDFF01460B4B5B68F8
:1024AC0003F460524FF460537B607B6893FAA3F3A0
:1024BC003B603B68B3FA83F322FA03F3044AD35C20
:1024CC0021FA03F318460837BD4680BD00100240C0
:1024DC007C6E000880B58CB000AF7860002387F864
:1024EC002F300023BB6200233B6200237B627B689E
:1024FC00002B01D10123E3E07B689B68002B7B68F8
:10250C009B6A002B09D17B680022DA627B6800226F
:10251C0083F82420786803F06DF8786800F02EFAC0
:10252C00034687F82F307B689B6A03F01003002B5F
:10253C0040F0BB8097F82F30002B40F0B6807B68C2
:10254C009B6A23F4885323F0020343F002027B6856
:10255C009A627B685A687B68DB691A437B68D96826
:10256C000223FB61FB6993FAA3F3BB61BB69B3FA6A
:10257C0083F301FA03F313433A6A13433B627B6818
:10258C009B68B3F5807F03D07B689B68012B02D1DD
:10259C004FF4807300E00023BA6A1343BB627B687C
:1025AC005B69012B24D17B68DB68002B14D17B6821
:1025BC009B695A1E4FF460437B617B6993FAA3F3CA
:1025CC003B613B69B3FA83F302FA03F343F4006310
:1025DC00BA6A1343BB620BE07B689B6A43F0200230
:1025EC007B689A627B68DB6A43F001027B68DA6283
:1025FC007B681B687A681268526822F46941BA6A6F
:10260C000A435A607B681A687B681B6899682E4B72
:10261C000B40396A0B4393607B689B68B3F5807FF2
:10262C0003D07B689B68012B0FD17B681B695A1EFA
:10263C004FF47003FB60FB6893FAA3F3BB60BB68B9
:10264C00B3FA83F302FA03F37B627B681B687A6844
:10265C001268D26A22F470017A6A0A43DA627B68E1
:10266C001B689A68194B13403A6A93420BD17B68EA
:10267C000022DA627B689B6A23F0030343F00102B9
:10268C007B689A621AE07B689B6A23F0120343F022
:10269C0010027B689A627B68DB6A43F001027B68FC
:1026AC00DA62012387F82F3008E07B689B6A43F0DD
:1026BC0010027B689A62012387F82F3097F82F302D
:1026CC0018463037BD4680BDFDF7E1FFFE0E1FFFFB
:1026DC0090B498B000AF78603960002387F85F3011
:1026EC000023BB607B6893F82430012B01D10223BB
:1026FC0039E17B68012283F824203B685B68062B58
:10270C002FD87B681B687A681268516B4FF478720B
:10271C00BA65BA6D92FAA2F27A657A6DB2FA82F261
:10272C0010463A685268013A02FB00F210461F222A
:10273C008240D24311403A6812684FF47870386581
:10274C00386D90FAA0F0F864F86CB0FA80F004469A
:10275C0038684068013800FB04F082400A435A6331
:10276C0062E03B685B680C2B2FD87B681B687A682F
:10277C001268116B4FF47872BA64BA6C92FAA2F2C6
:10278C007A647A6CB2FA82F210463A685268073A66
:10279C0002FB00F210461F228240D24311403A68DD
:1027AC0012684FF478703864386C90FAA0F0F863C3
:1027BC00F86BB0FA80F0044638684068073800FBC4
:1027CC0004F082400A431A632EE07B681B687A6827
:1027DC001268D16A4FF47872BA63BA6B92FAA2F2A9
:1027EC007A637A6BB2FA82F210463A6852680D3A02
:1027FC0002FB00F210461F228240D24311403A687D
:10280C0012684FF478703863386B90FAA0F0F86265
:10281C00F86AB0FA80F00446386840680D3800FB5E
:10282C0004F082400A43DA623B681B68092B2DD9FD
:10283C007B681B687A681268D1683822BA62BA6AF7
:10284C0092FAA2F27A627A6AB2FA82F210463A6884
:10285C0012680A3A02FB00F2104607228240D24369
:10286C0011403A68926838203862386A90FAA0F0C1
:10287C00F861F869B0FA80F00446386800680A38E4
:10288C0000FB04F082400A43DA602AE07B681B6894
:10289C007A68126811693822BA61BA6992FAA2F29E
:1028AC007A617A69B2FA82F210463A68126802FBCF
:1028BC0000F2104607228240D24311403A689268D7
:1028CC0038203861386990FAA0F0F860F868B0FAEE
:1028DC0080F004463868006800FB04F082400A432C
:1028EC001A613B681B68102B03D03B681B68112BCB
:1028FC0033D17B681B681E4A934225D17B681B68C9
:10290C009B6803F40003002B27D17B681B687A6853
:10291C001268926842F400029A603B681B68102BA4
:10292C001BD1144B1B68144AA2FB03239A0C1346AD
:10293C009B0013445B00BB6002E0BB68013BBB60C7
:10294C00BB68002BF9D108E07B689B6A43F020023E
:10295C007B689A62012387F85F307B68002283F8DA
:10296C00242097F85F3018466037BD4690BC7047FE
:10297C00002401400000002083DE1B4380B584B09E
:10298C0000AF78600023FB607B681B689B6803F0DA
:10299C000103002B27D07B681B687A681268926849
:1029AC0022F001029A6000F0F3FEF86014E000F0EF
:1029BC00EFFE0246FB68D31A022B0DD97B689B6A8B
:1029CC0043F010027B689A627B68DB6A43F0010279
:1029DC007B68DA62012307E07B681B689B6803F065
:1029EC000103002BE3D1002318461037BD4680BDF0
:1029FC0080B584B000AF78600023FB607B68002B4F
:102A0C0001D1012384E07B685B7CDBB2002B05D118
:102A1C007B6800221A74786802F012FF7B6802222D
:102A2C005A74786800F0EAF90346002B04D07B68EE
:102A3C0004225A7401236BE0786800F0A9FA03466B
:102A4C00002B04D07B6804225A74012360E07B685D
:102A5C001B687A681268526822F007025A607B6819
:102A6C009B68002B05D02C4A2B4B1B6B23F00103CE
:102A7C0013632949284BDB6A23F460727B689B68DB
:102A8C001343CB627B685B68B3F1FF3F03D07B6879
:102A9C005B68FB600EE0012000F05AFDF860FB68FB
:102AAC00002B04D17B6804225A74012330E0FB68AC
:102ABC00013BFB607B681B687A681268926822F0A5
:102ACC000F01FA68120C0A439A607B681A687B68DB
:102ADC001B68DB681B0C1B04F96889B20B43D360C1
:102AEC00786800F07DFA0346002B04D07B68042242
:102AFC005A7401230CE07B680022DA737B68012294
:102B0C005A737B6801229A737B6801225A740023E2
:102B1C0018461037BD4680BD006C004090B587B09C
:102B2C0000AFF860B9607A6000237B6100233B61E1
:102B3C00FB68002B02D0BB68002B01D1012380E085
:102B4C00FB681B7C012B01D102237AE0FB6801227C
:102B5C001A74FB6802225A747B68002B13D1BB6871
:102B6C001B781A464FF4616303FB02F2BB685B7877
:102B7C0019460B461B015B1A9B001344BA689278EA
:102B8C0013447B611EE0BB681B78184600F06EFA9C
:102B9C0003461A464FF4616303FB02F4BB685B788F
:102BAC00184600F063FA03461A4613461B019B1A9B
:102BBC009B001C44BB689B78184600F057FA0346F0
:102BCC0023447B61F868796900F078F90346002B9F
:102BDC0007D0FB6804225A74FB6800221A74012384
:102BEC002FE0FB681B68FA681268526822F0050235
:102BFC005A60F86800F08AF938613B69B3F1FF3F1D
:102C0C0018D03A697B699A4214D23B6903F5A83310
:102C1C0003F5C0733B61F868396900F091F903461C
:102C2C00002B07D0FB6804225A74FB6800221A742C
:102C3C00012306E0FB6801225A74FB6800221A7417
:102C4C00002318461C37BD4690BD00BF80B588B028
:102C5C0000AFF860B9607A600023BB610023FB61B0
:102C6C0000237B6100233B61FB68002B02D0BB6817
:102C7C00002B01D10123B5E0FB681B685B6803F0F6
:102C8C000403002B01D00123ACE0F86800F0E4F859
:102C9C00B861BB69554AA2FB0323DB0A3B61BA69E5
:102CAC00524BA3FB0213DB0A4FF4616101FB03F3EC
:102CBC00D31A4F4AA2FB03235B09DAB2BB685A70E2
:102CCC00BB694A4AA2FB0312D20A4FF4616101FBB1
:102CDC0002F29A1A464BA3FB021359090B461B012D
:102CEC005B1A9B00D11ACAB2BB689A703B69172B4E
:102CFC0055D93B693F4AA2FB03231B097B61396908
:102D0C003C4BA3FB01231A0913465B001344DB0065
:102D1C00CA1AD2B2BB681A70F86800F0F7F8F861FA
:102D2C00FB69B3F1FF3F08D0FA69BB699A4204D939
:102D3C00FA69BB69D31AFB6102E04FF0FF33FB6108
:102D4C007B692D4A02FB03F3BA69D31ABB61F8689D
:102D5C00B96900F0B3F80346002B01D0012341E020
:102D6C00FB69B3F1FF3F0CD0FA69BB691344FB61FB
:102D7C00F868F96900F0E4F80346002B0AD0012347
:102D8C0030E0F868F96900F0DBF80346002B01D05D
:102D9C00012327E0F868796900F086F903E03B69C4
:102DAC00DAB2BB681A707B68002B1AD0BB681B7830
:102DBC00184600F03DF903461A46BB681A70BB680A
:102DCC005B78184600F034F903461A46BB685A7013
:102DDC00BB689B78184600F02BF903461A46BB6873
:102DEC009A70002318462037BD4680BDC5B3A2910A
:102DFC0089888888ABAAAAAA8051010080B584B0C2
:102E0C0000AF78600023FB607B68002B01D10123AD
:102E1C001DE07B681B687A681268526822F0080211
:102E2C005A6000F0B5FCF86009E000F0B1FC024615
:102E3C00FB68D31AB3F57A7F01D9032307E07B68CB
:102E4C001B685B6803F00803002BEED000231846C8
:102E5C001037BD4680BD00BF80B487B000AF78602E
:102E6C0000237B8200233B820023FB8100237B61B8
:102E7C007B681B689B697B827B681B68DB69FB81B9
:102E8C007B681B689B693B827A8A3B8A9A4208D092
:102E9C003B8A1A047B681B68DB699BB213437B611A
:102EAC0004E07B8A1A04FB8913437B617B69184617
:102EBC001C37BD465DF8047B704700BF80B584B0FD
:102ECC0000AF786039600023FB73786800F060F81D
:102EDC000346002B02D00123FB7311E07B681B68B7
:102EEC003A68120C9A617B681B683A6892B2DA6194
:102EFC00786800F075F80346002B01D00123FB73B2
:102F0C00FB7B18461037BD4680BD00BF80B485B032
:102F1C0000AF78600023FB810023BB817B681B68BA
:102F2C001B6AFB817B681B685B6ABB81FB891A048B
:102F3C00BB89134318461437BD465DF8047B7047B4
:102F4C0080B584B000AF786039600023FB7378687B
:102F5C0000F01EF80346002B02D00123FB7311E096
:102F6C007B681B683A68120C1A627B681B683A68AB
:102F7C0092B25A62786800F033F80346002B01D005
:102F8C000123FB73FB7B18461037BD4680BD00BF89
:102F9C0080B584B000AF78600023FB6000F0F8FBD4
:102FAC00F86009E000F0F4FB0246FB68D31AB3F5B5
:102FBC007A7F01D903230FE07B681B685B6803F001
:102FCC002003002BEED07B681B687A68126852686D
:102FDC0042F010025A60002318461037BD4680BDDF
:102FEC0080B584B000AF78600023FB607B681B6801
:102FFC007A681268526822F010025A6000F0C8FB1E
:10300C00F86009E000F0C4FB0246FB68D31AB3F584
:10301C007A7F01D9032307E07B681B685B6803F0A8
:10302C002003002BEED0002318461037BD4680BD80
:10303C0080B485B000AF0346FB710023FB6005E054
:10304C00FB680133FB60FB790A3BFB71FB79092BB5
:10305C00F6D8FB68DBB21B01DAB2FB791343DBB2A7
:10306C0018461437BD465DF8047B704780B485B0B4
:10307C0000AF0346FB710023FB60FB791B09DBB23D
:10308C001A4613469B0013445B00FB60FB7903F06C
:10309C000F03DAB2FB68DBB21344DBB21846143709
:1030AC00BD465DF8047B704780B586B000AF786094
:1030BC00396000237B6100233B610023FB6000230C
:1030CC00BB607B68DB7B7B617B685B7B3B617B688C
:1030DC009B7BFB600023BB6070E03B69012B11D034
:1030EC003B69032B0ED03B69052B0BD03B69072B9F
:1030FC0008D03B69082B05D03B690A2B02D03B69F1
:10310C000C2B18D1FB681E2B03D8FB680133FB601A
:10311C0010E03B690C2B05D03B6901333B6101236B
:10312C00FB6007E001233B610123FB607B690133FA
:10313C007B6140E03FE03B69042B08D03B69062BE8
:10314C0005D03B69092B02D03B690B2B0CD1FB68DA
:10315C001D2B03D8FB680133FB602CE03B6901336A
:10316C003B610123FB6026E03B69022B23D1FB680A
:10317C001B2B03D8FB680133FB601CE0FB681C2B8A
:10318C0011D17B699BB2184600F038F80346002B2E
:10319C0003D0FB680133FB600DE03B6901333B61FD
:1031AC000123FB6007E0FB681D2B04D13B69013355
:1031BC003B610123FB60BB680133BB60BA683B68B1
:1031CC009A428AD37B69DAB27B68DA733B69DAB2EA
:1031DC007B685A73FB68DAB27B689A733B69DAB224
:1031EC00FB68DBB2786911461A4600F03BF80346DF
:1031FC001A467B681A731837BD4680BD80B483B0FD
:10320C0000AF0346FB80FB8803F003039BB2002B4B
:10321C0001D000231DE0FB88114AA2FB03125209C6
:10322C00642101FB02F29B1A9BB2002B01D00123FB
:10323C000FE0FB880A4AA2FB0312D2094FF4C871B3
:10324C0001FB02F29B1A9BB2002B01D1012300E07F
:10325C00002318460C37BD465DF8047B704700BF51
:10326C001F85EB5180B485B000AF78600B46FB70C6
:10327C001346BB700023BB600023FB607B6803F527
:10328C00FA63BB60FB78022B30D8FA7813465B00EC
:10329C001344DB009B1A304A82FB03125210DB17DB
:1032AC00D21ABB7813441A46BB681A44BB68013B5C
:1032BC009B081A44BB68013B2849A1FB03135B091B
:1032CC00D21ABB68013B2549A1FB0313DB0913444C
:1032DC001A1D234BA2FB0301531A5B080B449908DC
:1032EC000B46DB005B1AD31AFB602CE0FA78134612
:1032FC005B001344DB009B1A174A82FB031252102B
:10330C00DB17D21ABB7813441A46BB681A44BB6845
:10331C009B081A44BB681149A1FB03135B09D21A21
:10332C00BB680E49A1FB0313DB0913449A1C0C4B1D
:10333C00A2FB0301531A5B080B4499080B46DB00F4
:10334C005B1AD31AFB60FB68DBB218461437BD4618
:10335C005DF8047B704700BF398EE3381F85EB5155
:10336C002549922480B590B000AF78600023FB63B0
:10337C000023BB637B681B6803F00103002B00F088
:10338C00BD80704A6F4BDB6943F08053D3616D4B4A
:10339C00DB6903F08053FB60FB686B4A6A4B1B686C
:1033AC0043F48073136000F0F3F9F86308E000F065
:1033BC00EFF90246FB6BD31A642B01D90323BCE053
:1033CC00614B1B6803F48073002BF0D05D4B1B6AC0
:1033DC0003F44073BB63BB6B002B00F086807B68EF
:1033EC005B6803F44072BB6B9A427ED0554B1B6AF0
:1033FC0023F44073BB634FF480337B637B6B93FA92
:10340C00A3F33B633B6BB3FA83F39B001A464F4B1E
:10341C0013441A46012313604FF48033FB62FB6A9A
:10342C0093FAA3F3BB62BB6AB3FA83F39B001A460D
:10343C00464B13441A4600231360424ABB6B13627B
:10344C00BB6B03F00103002B4FD000F0A1F9F86324
:10345C000AE000F09DF90246FB6BD31A41F2883268
:10346C00934201D9032368E002237B627B6A93FABF
:10347C00A3F33B623B6AB3FA83F3DBB243F0400342
:10348C00DBB2DBB25B09DBB2012B02D12D4B1B682B
:10349C0016E00223FB61FB6993FAA3F3BB61BB69E2
:1034AC00B3FA83F3DBB243F04003DBB2DBB25B096C
:1034BC00DBB2022B02D1234B1B6A01E0214B5B6A6E
:1034CC0002227A617A6992FAA2F23A613A69B2FA04
:1034DC0082F2D2B242F04002D2B2D2B202F01F0259
:1034EC00D34003F00103002BB3D01649154B1B6AD4
:1034FC0023F440727B685B6813430B627B681B6828
:10350C0003F00203002B08D00E490E4B5B6823F42A
:10351C0040427B689B6813434B607B681B6803F0DD
:10352C001003002B08D00749064B5B6823F480027C
:10353C007B68DB6813434B60002318464037BD465D
:10354C0080BD00BF001002400070004000044242E9
:10355C0090B593B000AF7860684B07F10C04186815
:10356C0059689A68DB680FC4654A07F1080312882A
:10357C001A800023FB6300237B640023BB630023BE
:10358C003B6400237B637B68022B00F09980102B3B
:10359C0002D0012B5ED0ACE05A4B5B68FB63594BFD
:1035AC001B6803F08073002B53D0FB6B03F4701279
:1035BC004FF470133B633B6B93FAA3F3FB62FB6A10
:1035CC00B3FA83F322FA03F307F14802134413F816
:1035DC003C3C7B63FB6B03F48033002B23D0494BC7
:1035EC005B6803F400324FF40033BB62BB6A93FA9E
:1035FC00A3F37B627B6AB3FA83F322FA03F307F13A
:10360C004802134413F8403CBB63FB6B03F4803358
:10361C00002B0DD03C4ABB6BB2FBF3F37A6B02FB75
:10362C0003F33B6404E07B6B374A02FB03F33B641C
:10363C00344B5B6803F48003002B02D03B6C7B643F
:10364C0007E03B6C5B00314AA2FB03235B087B6405
:10365C004FE04EE02B4B1B6AFB63FB6B03F4407398
:10366C00B3F5807F08D1FB6B03F00203002B03D072
:10367C004FF400437B6422E0FB6B03F44073B3F51F
:10368C00007F09D11F4B5B6A03F00203002B03D0B0
:10369C0049F640437B6412E0FB6B03F44073B3F5D3
:1036AC00407F09D1174B1B6803F40033002B03D068
:1036BC0047F612237B6402E000237B6419E018E0D8
:1036CC00FEF7E6FE01460F4B5B6803F440424FF4F5
:1036DC0080433B623B6A93FAA3F3FB61FB69B3FA49
:1036EC0083F322FA03F301335B00B1FBF3F37B6446
:1036FC0000BF7B6C18464C37BD4690BDA86D0008CA
:10370C00B86D00080010024000093D00ABAAAAAA3F
:10371C0080B500AF084A084B1B6843F010031360D8
:10372C00032000F0A1FF002000F008F801F0D6FD06
:10373C000023184680BD00BF0020024080B582B037
:10374C0000AF7860FEF776FE0246094BA3FB02231E
:10375C009B09184600F0BCFF4FF0FF30796800223F
:10376C0000F08CFF002318460837BD4680BD00BF13
:10377C00D34D621080B400AF044B1B680133034A75
:10378C001360BD465DF8047B704700BFDC0C002065
:10379C0080B400AF034B1B681846BD465DF8047B34
:1037AC00704700BFDC0C002080B584B000AF78609F
:1037BC000023FB60FFF7ECFFF86000BFFFF7E8FFAA
:1037CC000246FB68D21A7B689A42F7D31037BD4683
:1037DC0080BD00BF80B48BB000AF7860396000232F
:1037EC00FB610023BB6100237B6100233B62002350
:1037FC003B6100237B6228E17B6A012202FA03F31E
:10380C00FB613B681A68FB691340BB61BA69FB69D1
:10381C009A4240F017813B685B68122B34D0122B14
:10382C000DD8022B2BD0022B04D8002B31D0012B1E
:10383C001CD049E0032B44D0112B1BD044E0874A09
:10384C00934226D0854A934206D8854A934220D08B
:10385C00844A93421DD037E0834A934219D0834A5D
:10386C00934216D0824A934213D02DE03B68DB681A
:10387C003B6229E03B68DB6804333B6224E03B6835
:10388C00DB6808333B621FE03B68DB680C333B6250
:10389C001AE03B689B68002B02D104233B620FE0CB
:1038AC003B689B68012B05D108233B627B68FA6956
:1038BC001A6105E008233B627B68FA695A6103E0F0
:1038CC0002E000233B6200BFBB69FF2B01D87B6881
:1038DC0001E07B680433FB60BB69FF2B02D87B6A79
:1038EC009B0002E07B6A083B9B003B61FB681A680B
:1038FC003B690F2101FA03F3DB431A403B69396A38
:10390C0001FA03F31A43FB681A603B685B6803F027
:10391C008053002B00F09680564A564B9B6943F01F
:10392C0001039361534B9B6903F00103BB60BB68BC
:10393C00514A7B6A9B08023352F823307B617B6AC5
:10394C0003F003039B001A460F239340DB437A6971
:10395C0013407B617B68494A934213D07B68484A89
:10396C0093420DD07B68474A934207D07B68464A06
:10397C00934201D1032306E0042304E0022302E076
:10398C00012300E000237A6A02F0030292009340C4
:10399C007A6913437B6138497B6A9B0802337A69E5
:1039AC0041F823203B685B6803F48033002B06D07E
:1039BC003649364B1A68BB6913430B6006E0334932
:1039CC00324B1A68BB69DB4313400B603B685B6886
:1039DC0003F40033002B06D02C492C4B5A68BB69DE
:1039EC0013434B6006E02949284B5A68BB69DB43FB
:1039FC0013404B603B685B6803F48013002B06D0CC
:103A0C002249224B9A68BB6913438B6006E01F491D
:103A1C001E4B9A68BB69DB4313408B603B685B6849
:103A2C0003F40013002B06D01849184BDA68BB6955
:103A3C001343CB6006E01549144BDA68BB69DB43D2
:103A4C001340CB607B6A01337B627B6A0F2B7FF662
:103A5C00D3AE2C37BD465DF8047B704700002110B7
:103A6C000000111000001210000031100000321084
:103A7C00000022100010024000000140000801402C
:103A8C00000C0140001001400014014000040140F2
:103A9C0080B485B000AF78600B467B807B689A68F9
:103AAC007B881340002B02D00123FB7301E0002321
:103ABC00FB73FB7B18461437BD465DF8047B7047DF
:103ACC0080B483B000AF78600B467B8013467B706C
:103ADC007B78002B03D07A887B681A6103E07B88A3
:103AEC001A047B681A610C37BD465DF8047B70477D
:103AFC0080B483B000AF78600B467B807B68DA685B
:103B0C007B885A407B68DA600C37BD465DF8047BD5
:103B1C00704700BF80B487B000AFF860B9607A60BE
:103B2C0000237B61074B7B61BB689B007A69134464
:103B3C007B617B697A6892B21A601C37BD465DF86E
:103B4C00047B7047006C004080B485B000AF786097
:103B5C0039600023FB600023BB60094BFB603B68B2
:103B6C009B00FA681344FB60FB681B689BB2BB604C
:103B7C00BB6818461437BD465DF8047B704700BF20
:103B8C00006C004080B483B000AF786039607B6813
:103B9C0093F83830012B01D1022332E07B680122EB
:103BAC0083F838207B68022283F839207B681B68F5
:103BBC007A681268526822F070025A607B681B683F
:103BCC007A68126851683A6812680A435A607B68CE
:103BDC001B687A681268926822F080029A607B688F
:103BEC001B687A68126891683A6852680A439A604E
:103BFC007B68012283F839207B68002283F8382007
:103C0C00002318460C37BD465DF8047B704700BF97
:103C1C0080B483B000AF78600C37BD465DF8047B90
:103C2C00704700BF80B483B000AF78600C37BD46DE
:103C3C005DF8047B704700BF80B582B000AF786040
:103C4C007B68002B01D101231DE07B6893F8393090
:103C5C00DBB2002B06D17B68002283F83820786811
:103C6C0001F072FD7B68022283F839207B681A68A8
:103C7C007B6804331046194600F006FB7B68012272
:103C8C0083F83920002318460837BD4680BD00BF95
:103C9C0080B483B000AF78607B681B687A68126868
:103CAC00D26842F00102DA607B681B687A6812689D
:103CBC00126842F001021A60002318460C37BD4608
:103CCC005DF8047B704700BF80B586B000AF7860AC
:103CDC00396000237B6100233B610023FB607B6820
:103CEC00002B01D1012381E07B6893F83930DBB2E2
:103CFC00002B06D17B68002283F83820786801F00D
:103D0C0045FD7B68022283F839207B681B687A6842
:103D1C001268926822F007029A607B681A687B68C6
:103D2C0004331046194600F0AFFA7B681B689B6899
:103D3C007B617B681B689B693B617B681B681B6AAA
:103D4C00FB603B681B687A6913437B613B6923F416
:103D5C00407323F003033B613B689A683B689B69A3
:103D6C001B0213433A6913433B613B6923F44063E1
:103D7C0023F00C033B613B6923F4704323F0F00305
:103D8C003B613B68DA683B68DB691B0213433A69A9
:103D9C0013433B613B681B691A013B681B6A1B039D
:103DAC0013433A6913433B61FB6823F02203FB6026
:103DBC00FB6823F08803FB603B685A683B685B69CF
:103DCC001B011343FA681343FB607B681B687A6919
:103DDC009A607B681B683A699A617B681B68FA6811
:103DEC001A627B68012283F83920002318461837A1
:103DFC00BD4680BD80B582B000AF786039603B684D
:103E0C00002B02D0042B08D00FE07B681B681846EF
:103E1C000021012200F03EFB16E07B681B6818466F
:103E2C000421012200F036FB0EE07B681B6818466B
:103E3C000021012200F02EFB7B681B681846042130
:103E4C00012200F027FB00BF7B681B687A681268B0
:103E5C00126842F001021A60002318460837BD466A
:103E6C0080BD00BF80B582B000AF78607B681B68F6
:103E7C001B6903F00203002B22D07B681B68DB68F4
:103E8C0003F00203002B1BD07B681B686FF002024F
:103E9C001A617B6801221A767B681B689B6903F0A8
:103EAC000303002B03D0786800F0D0F905E07868A4
:103EBC0000F0C2F9786800F0D3F97B6800221A761A
:103ECC007B681B681B6903F00403002B22D07B6802
:103EDC001B68DB6803F00403002B1BD07B681B689A
:103EEC006FF004021A617B6802221A767B681B68E9
:103EFC009B6903F44073002B03D0786800F0A6F99B
:103F0C0005E0786800F098F9786800F0A9F97B680A
:103F1C0000221A767B681B681B6903F00803002BD0
:103F2C0022D07B681B68DB6803F00803002B1BD0D6
:103F3C007B681B686FF008021A617B6804221A7692
:103F4C007B681B68DB6903F00303002B03D07868E4
:103F5C0000F07CF905E0786800F06EF9786800F004
:103F6C007FF97B6800221A767B681B681B6903F05B
:103F7C001003002B22D07B681B68DB6803F0100356
:103F8C00002B1BD07B681B686FF010021A617B68DA
:103F9C0008221A767B681B68DB6903F44073002BDC
:103FAC0003D0786800F052F905E0786800F044F925
:103FBC00786800F055F97B6800221A767B681B68DC
:103FCC001B6903F00103002B0ED07B681B68DB68B8
:103FDC0003F00103002B07D07B681B686FF0010214
:103FEC001A61786801F05EFC7B681B681B6903F042
:103FFC008003002B0ED07B681B68DB6803F080030A
:10400C00002B07D07B681B686FF080021A61786800
:10401C00FFF708FE7B681B681B6903F04003002B4D
:10402C000ED07B681B68DB6803F04003002B07D0C5
:10403C007B681B686FF040021A61786800F01AF90F
:10404C007B681B681B6903F02003002B0ED07B6878
:10405C001B68DB6803F02003002B07D07B681B6810
:10406C006FF020021A617868FFF7D2FD0837BD4661
:10407C0080BD00BF80B584B000AF7860396000238C
:10408C00FB607B6893F83830012B01D10223CFE021
:10409C007B68012283F838207B68022283F8392060
:1040AC007B681B689B68FB60FB6823F07703FB60F5
:1040BC00FB6823F47F43FB607B681B68FA689A609B
:1040CC003B681B68402B7CD0402B0FD8102B00F08A
:1040DC009180102B03D8002B00F085809FE0202BC3
:1040EC0000F08F80302B00F0938098E0702B16D06E
:1040FC00702B04D8502B40D0602B50D08FE0B3F5F0
:10410C00805F03D0B3F5005F24D088E07B681B6828
:10411C007A681268926822F007029A607FE07B68E6
:10412C0018683B6899683B685A683B68DB6800F024
:10413C008FF97B681B689B68FB60FB6823F0770337
:10414C00FB60FB6843F07703FB607B681B68FA68D5
:10415C009A6064E07B6818683B6899683B685A68A9
:10416C003B68DB6800F074F97B681B687A6812683E
:10417C00926842F480429A6051E07B6819683B680F
:10418C005A683B68DB68084611461A4600F0DAF8B4
:10419C007B681B681846502100F03AF93FE07B68B9
:1041AC0019683B685A683B68DB68084611461A4632
:1041BC0000F0FAF87B681B681846602100F028F9BB
:1041CC002DE07B6819683B685A683B68DB680846D9
:1041DC0011461A4600F0B6F87B681B681846402159
:1041EC0000F016F91BE07B681B681846002100F0F4
:1041FC000FF914E07B681B681846102100F008F9D1
:10420C000DE07B681B681846202100F001F906E0E0
:10421C007B681B681846302100F0FAF800BF7B68F9
:10422C00012283F839207B68002283F83820002390
:10423C0018461037BD4680BD80B483B000AF78609F
:10424C000C37BD465DF8047B704700BF80B483B06B
:10425C0000AF78600C37BD465DF8047B704700BF3B
:10426C0080B483B000AF78600C37BD465DF8047B3A
:10427C00704700BF80B483B000AF78600C37BD4688
:10428C005DF8047B704700BF80B485B000AF7860E8
:10429C0039600023FB607B681B68FB607B68264AE7
:1042AC0093420BD07B68B3F1804F07D07B68234AD5
:1042BC00934203D07B68224A934208D1FB6823F0D7
:1042CC007003FB603B685B68FA681343FB607B68B8
:1042DC00194A93420BD07B68B3F1804F07D07B68AF
:1042EC00164A934203D07B68154A934208D1FB6867
:1042FC0023F44073FB603B68DB68FA681343FB6094
:10430C007B68FA681A603B689A687B68DA623B687B
:10431C001A687B689A627B68074A934203D13B68B0
:10432C001A697B681A637B6801225A611437BD468F
:10433C005DF8047B704700BF002C01400004004076
:10434C000008004080B487B000AFF860B9607A60B4
:10435C0000237B6100233B61FB681B6A3B61FB68AC
:10436C001B6A23F00102FB681A62FB689B697B6184
:10437C007B6923F0F0037B617B681B017A69134333
:10438C007B613B6923F00A033B613A69BB681343C9
:10439C003B61FB687A699A61FB683A691A621C375F
:1043AC00BD465DF8047B704780B487B000AFF86001
:1043BC00B9607A6000237B6100233B61FB681B6A58
:1043CC0023F01002FB681A62FB689B697B61FB6837
:1043DC001B6A3B617B6923F470437B617B681B0325
:1043EC007A6913437B613B6923F0A0033B61BB6893
:1043FC001B013A6913433B61FB687A699A61FB685C
:10440C003A691A621C37BD465DF8047B704700BFE1
:10441C0080B485B000AF78600B467B800023FB60D6
:10442C007B689B68FB60FB6823F07003FB607B88F8
:10443C0043F007039BB21A46FB681343FB607B688F
:10444C00FA689A601437BD465DF8047B704700BF6C
:10445C0080B487B000AFF860B9607A603B6000232D
:10446C007B61FB689B687B617B6923F47F437B6189
:10447C003B681A027B681A43BB6813437A6913437F
:10448C007B61FB687A699A601C37BD465DF8047BDA
:10449C00704700BF80B487B000AFF860B9607A6035
:1044AC0000237B61BB68012202FA03F37B61FB688A
:1044BC001A6A7B69DB431A40FB681A62FB681A6A4A
:1044CC00BB68796801FA03F31A43FB681A621C375C
:1044DC00BD465DF8047B704780B485B000AF786052
:1044EC007B6803F00703FB600C4BDB68BB60BA68AE
:1044FC004FF6FF031340BB60FB681A02BB68134303
:10450C0043F0BF6343F40033BB60044ABB68D36021
:10451C001437BD465DF8047B704700BF00ED00E02A
:10452C0080B400AF044BDB6803F4E0631B0A18464D
:10453C00BD465DF8047B704700ED00E080B483B0AD
:10454C0000AF0346FB71084997F907305B09FA790C
:10455C0002F01F02012000FA02F241F823200C376E
:10456C00BD465DF8047B704700E100E080B483B089
:10457C0000AF03463960FB7197F90730002B0BDA5B
:10458C000D49FB7903F00F03043B3A68D2B21201D8
:10459C00D2B20B441A7609E0084997F907303A6809
:1045AC00D2B21201D2B20B4483F800230C37BD46B1
:1045BC005DF8047B704700BF00ED00E000E100E017
:1045CC0080B489B000AFF860B9607A60FB6803F022
:1045DC000703FB61FB69C3F10703042B28BF04230A
:1045EC00BB61FB690433062B02D9FB69033B00E07A
:1045FC0000237B61BB69012202FA03F35A1EBB68DC
:10460C001A407B699A407B69012101FA03F3591E18
:10461C007B680B40134318462437BD465DF8047B7A
:10462C00704700BF80B582B000AF78607B68013BFB
:10463C00B3F1807F01D301230FE00A4A7B68013B71
:10464C0053604FF0FF300F21FFF790FF054B002216
:10465C009A60044B07221A60002318460837BD469F
:10466C0080BD00BF10E000E080B582B000AF786084
:10467C007868FFF731FF0837BD4680BD80B586B03E
:10468C0000AF0346B9607A60FB7300237B61FFF7D0
:10469C0047FF78617869B9687A68FFF791FF02463D
:1046AC0097F90F3018461146FFF760FF1837BD46D3
:1046BC0080BD00BF80B582B000AF0346FB7197F997
:1046CC0007301846FFF73AFF0837BD4680BD00BFDC
:1046DC0080B582B000AF78607868FFF7A3FF03461F
:1046EC0018460837BD4680BD80B483B000AF7860F3
:1046FC007B68042B06D1094A084B1B6843F0040362
:10470C00136005E0054A054B1B6823F00403136096
:10471C000C37BD465DF8047B704700BF10E000E02D
:10472C0080B500AF00F002F880BD00BF80B400AFD0
:10473C00BD465DF8047B704780B483B000AF4FF486
:10474C0080737B607B6893FAA3F33B603B68B3FA9E
:10475C0083F39B0003F1844303F560231A46012382
:10476C0013600C37BD465DF8047B704780B582B092
:10477C0000AF78607B68002B01D101233BE07B68A4
:10478C0093F83930DBB2002B06D17B68002283F81A
:10479C003820786800F016FE7B68022283F83920F6
:1047AC007B681B687A681268D26822F40052DA605F
:1047BC00786800F067F97B681B687A681268126980
:1047CC0022F490421A617B681B687A6812685269FD
:1047DC0022F02A025A617B681B687A681268D268D8
:1047EC0042F40052DA607B680022DA637B680122B3
:1047FC0083F83920002318460837BD4680BD00BF1A
:10480C0080B586B000AFF860B9603B601346FB80A2
:10481C0000237B61FB6893F83930DBB27B617B69E9
:10482C00012B03D07B69222B40F08D80BB68002BC1
:10483C0002D0FB88002B01D1012385E0FB6893F8A3
:10484C003830012B01D102237EE0FB68012283F872
:10485C003820FB680022DA63FB6893F83930DBB24E
:10486C00222B04D1FB68322283F8392003E0FB6849
:10487C00122283F83920FB68FA889A84FB68FA883C
:10488C00DA843CE0FB68DB8C013B9AB2FB68DA848F
:10489C00FB689B68B3F5805F1FD1F868802100220C
:1048AC003B6800F055F80346002B01D003234BE086
:1048BC00BB683B61FB681B683A691288C2F308024B
:1048CC005A60FB681B69002B03D1BB680233BB60C9
:1048DC0015E0BB680133BB6011E0F8688021002251
:1048EC003B6800F035F80346002B01D003232BE086
:1048FC00FB681A68BB68591CB9601B785360FB686D
:10490C00DB8C002BBED1F868402100223B6800F004
:10491C001FF80346002B01D0032315E0FB6893F826
:10492C003930DBB2322B04D1FB68222283F83920D8
:10493C0003E0FB68012283F83920FB68002283F82E
:10494C003820002300E0022318461837BD4680BDEE
:10495C0080B586B000AFF860B9603B601346FB7160
:10496C0000237B61FEF714FF7861FB79002B42D1A9
:10497C0038E03B68B3F1FF3F34D03B68002B07D0E5
:10498C00FEF706FF02467B69D21A3B689A4229D988
:10499C00FB681B68FA681268D26822F08002DA6041
:1049AC00FB681B68FA681268D26822F02002DA6091
:1049BC00FB681B68FA681268D26822F48072DA60AD
:1049CC00FB681B68FA681268526922F001025A618E
:1049DC00FB68012283F83920FB68002283F8382019
:1049EC0003234BE0FB681B681A68BB681A40BB6862
:1049FC009A42BED141E038E03B68B3F1FF3F34D07E
:104A0C003B68002B07D0FEF7C3FE02467B69D21A27
:104A1C003B689A4229D9FB681B68FA681268D2680D
:104A2C0022F08002DA60FB681B68FA681268D268B0
:104A3C0022F02002DA60FB681B68FA681268D26800
:104A4C0022F48072DA60FB681B68FA68126852699B
:104A5C0022F001025A61FB68012283F83920FB68BD
:104A6C00002283F83820032308E0FB681B681A68CF
:104A7C00BB681A40BB689A42BED000231846183750
:104A8C00BD4680BDF0B585B000AF78600023FB60FB
:104A9C007B681B687A681268126922F440517A6844
:104AAC00D2680A431A617B689A687B681B691A434F
:104ABC007B685B691343FB607B681A687B681B68C7
:104ACC00DB6823F4B05323F00C03F9680B43D36079
:104ADC007B681B687A681268526922F440717A68A4
:104AEC0092690A435A617B681B686E4A93426BD188
:104AFC007B681C68FDF7CCFC024613469B001344F4
:104B0C009A001A447B685B689B00B2FBF3F3664A1D
:104B1C00A2FB03235B091D01FDF7BAFC02461346F9
:104B2C009B0013449A001A447B685B689B00B2FBA1
:104B3C00F3F6FDF7ADFC024613469B0013449A00B6
:104B4C001A447B685B689B00B2FBF3F3564AA2FBEA
:104B5C0003235B09642202FB03F3F31A1B013233B8
:104B6C00514AA2FB03235B0903F0F0031D44FDF73C
:104B7C008FFC024613469B0013449A001A447B6830
:104B8C005B689B00B2FBF3F6FDF782FC0246134612
:104B9C009B0013449A001A447B685B689B00B2FB31
:104BAC00F3F3414AA2FB03235B09642202FB03F3E8
:104BBC00F31A1B0132333C4AA2FB03235B0903F0BB
:104BCC000F032B44A3606AE07B681C68FDF73EFC76
:104BDC00024613469B0013449A001A447B685B6898
:104BEC009B00B2FBF3F3304AA2FB03235B091D01CC
:104BFC00FDF72CFC024613469B0013449A001A4402
:104C0C007B685B689B00B2FBF3F6FDF71FFC02466A
:104C1C0013469B0013449A001A447B685B689B0004
:104C2C00B2FBF3F3204AA2FB03235B09642202FBD1
:104C3C0003F3F31A1B0132331B4AA2FB03235B0958
:104C4C0003F0F0031D44FDF701FC024613469B00E4
:104C5C0013449A001A447B685B689B00B2FBF3F622
:104C6C00FDF7F4FB024613469B0013449A001A44CA
:104C7C007B685B689B00B2FBF3F30B4AA2FB03233C
:104C8C005B09642202FB03F3F31A1B013233064A5D
:104C9C00A2FB03235B0903F00F032B44A36014371F
:104CAC00BD46F0BD003801401F85EB5180B400AF0C
:104CBC00024B1846BD465DF8047B7047040000208B
:104CCC0080B582B000AFFBF755FF7860084B00222F
:104CDC001A707B689A78074B1A707B685A78064B67
:104CEC001A707B681A78054B1A700837BD4680BD60
:104CFC00380D00203B0D00203A0D0020390D00200E
:104D0C0080B582B000AF0B4B1B78002B0ED1FBF79C
:104D1C0031FF78607B689A78074B1A707B685A78F9
:104D2C00064B1A707B681A78054B1A700837BD460B
:104D3C0080BD00BF380D00203B0D00203A0D002037
:104D4C00390D002080B500AF00200021FBF7FCFCE2
:104D5C002A48FBF79DFD01200021FBF7F5FC284BB1
:104D6C001B78042B48D801A252F823F08D4D000873
:104D7C00A54D0008BD4D0008D54D0008ED4D0008AF
:104D8C00204B1B781946204B1B781A461F4B1B785F
:104D9C001F48FBF77DFD2FE01A4B1B7819461A4B69
:104DAC001B781A46194B1B781A48FBF771FD23E048
:104DBC00144B1B781946144B1B781A46134B1B7853
:104DCC001548FBF765FD17E00E4B1B7819460E4B8B
:104DDC001B781A460D4B1B781048FBF759FD0BE05E
:104DEC00084B1B781946084B1B781A46074B1B7847
:104DFC000B48FBF74DFD00BF80BD00BFBC6D00082C
:104E0C00380D0020390D00203A0D00203B0D0020FC
:104E1C00CC6D0008DC6D0008EC6D0008FC6D000822
:104E2C000C6E000880B483B000AF03460A46FB80CA
:104E3C001346BB800D4B1B78022B08D0032B0BD0D9
:104E4C00012B0ED1FB88DAB2094B1A7009E0FB88F2
:104E5C00DAB2084B1A7004E0FB88DAB2064B1A700F
:104E6C0000BF0C37BD465DF8047B7047380D002041
:104E7C00390D00203A0D00203B0D002080B582B08A
:104E8C0000AF03460A46FB711346BB71BB79012B7D
:104E9C005DD1304B1B78032B3ED8FB79002B0CBF1C
:104EAC0001230023DBB21A46FB79012B05D1294BD8
:104EBC001B78002B01D0012300E00023DBB2D31AB6
:104ECC00DAB2244B1B781344DAB2224B1A70214B02
:104EDC001B78012B07D1204B1B789BB21BB21846B9
:104EEC00022100F063F91B4B1B78022B07D11B4BE3
:104EFC001B789BB21BB21846012100F057F9154BD9
:104F0C001B78032B21D1164B1B789BB21BB2184676
:104F1C00012100F04BF918E00E4B1B78042B14D137
:104F2C00FB79012B0ED10B4B00221A700A4B19780E
:104F3C000A4B1A780A4B1B78084611461A46FBF79F
:104F4C0027FE02E0034B00221A70FBF7A1FB083787
:104F5C00BD4680BD380D0020390D00203A0D0020D3
:104F6C003B0D002080B400AF01231846BD465DF810
:104F7C00047B704780B400AF01231846BD465DF832
:104F8C00047B704780B400AF024B1846BD465DF8F9
:104F9C00047B70472400002080B400AFBD465DF850
:104FAC00047B704780B400AFBD465DF8047B70474E
:104FBC0080B582B000AFFBF7DDFD7860FBF73AFE01
:104FCC00386000200021FBF7BFFB7B681B7819467B
:104FDC007B685B781A467B689B780F48FBF758FC1C
:104FEC0001200021FBF7B0FB3B681B78C3F30003E7
:104FFC00DBB219463B681B78C3F34403DBB21A4699
:10500C003B685B78C3F30403DBB20448FBF740FC5A
:10501C000837BD4680BD00BF246E00083C6E0008FA
:10502C0080B483B000AF03460A46FB801346BB80B6
:10503C000C37BD465DF8047B704700BF80B582B06D
:10504C0000AF03460A46FB711346BB71FB79022B7A
:10505C0005D1BB79082B02D1FBF764FE01E0FBF70D
:10506C006DFEFB79032B07D1BB79012B04D10020FA
:10507C000B212F22FBF7E8FDFB79032B07D1BB7922
:10508C00042B04D1012014210D22FBF7DDFD083780
:10509C00BD4680BD80B400AF01231846BD465DF807
:1050AC00047B704780B400AF01231846BD465DF801
:1050BC00047B704780B582B002AF0123009308488F
:1050CC0000213C220023FBF787FE012300930548B7
:1050DC00002118220023FBF77FFEBD4680BD00BFD8
:1050EC00500D00203C0D002080B500AF044B1B6818
:1050FC00002B03D0024B1B689B68984780BD00BFF8
:10510C004C0D002080B500AF044B1B68002B03D066
:10511C00024B1B68DB68984780BD00BF4C0D00201C
:10512C0080B582B000AF78600C4B1B68002B0AD0A6
:10513C000A4B1B68DB6998470346002B00D10AE039
:10514C00064B00221A60054A7B681360FBF7A0FA35
:10515C007B685B6898470837BD4680BD4C0D0020C6
:10516C0080B584B000AF0346FB710023FB60FB7974
:10517C00002B02D0012B04D007E0FFF703FFF860EF
:10518C0003E0FFF793FDF86000BFFB790648194672
:10519C0000F0CCFCFB68002B02D0F868FFF7C0FFD6
:1051AC001037BD4680BD00BF506E000880B584B07E
:1051BC0000AF03460A46FB8013467B710023FB605D
:1051CC007B79022B02D10A4BFB6004E07B79012B2B
:1051DC0001D1084BFB60FB68002B02D0FB68FA88FE
:1051EC009A80F8680449FBF777FF1037BD4680BDFD
:1051FC003C0D0020500D0020B152000880B582B04B
:10520C0000AF03460A46FB711346BB71FB79002BBA
:10521C0002D0FB79012B34D1BB79042B31D1204B3B
:10522C001B68002B28D0FB79012B10D11C4B1B6861
:10523C001B78002B08D01A4B1B681B78013BDBB288
:10524C001846FFF78DFF02E00120FFF789FFFB797D
:10525C00002B15D1124B1B681B78002B08D1104B5F
:10526C001B681B780133DBB21846FFF779FF07E0A8
:10527C000020FFF775FF10E00020FFF771FF0CE036
:10528C000BE0074B1B68002B07D0054B1B685B69B9
:10529C00F979BA790846114698470837BD4680BD5A
:1052AC004C0D002080B582B000AF03460A46FB804F
:1052BC001346BB80084B1B68002B09D0064B1B68A0
:1052CC001B69B7F90610B7F9042008461146984730
:1052DC000837BD4680BD00BF4C0D002080B582B0A4
:1052EC0000AF224A214B9B6943F0010393611F4B92
:1052FC009B6903F001037B607B680320FFF7B4F923
:10530C006FF00B0000210022FFF7B8F96FF00A00D4
:10531C0000210022FFF7B2F96FF0090000210022F2
:10532C00FFF7ACF96FF0040000210022FFF7A6F99B
:10533C006FF0030000210022FFF7A0F96FF00100CD
:10534C0000210022FFF79AF94FF0FF3000210022D4
:10535C00FFF794F9064A064B5B6823F0E06343F0D1
:10536C00007353600837BD4680BD00BF001002407B
:10537C000000014080B500AF104B114A1A600F4B72
:10538C004FF4E1325A600D4B00229A600B4B002215
:10539C00DA600A4B00221A61084B0C225A61074B47
:1053AC0000229A61054B0022DA610448FFF7DEF90E
:1053BC000346002B01D000F061FB80BD600D002086
:1053CC000038014080B588B000AF78607B681B68FE
:1053DC00154A934225D1154A144B9B6943F48043DB
:1053EC009361124B9B6903F48043FB60FB684FF4A1
:1053FC0000733B6102237B610323FB6107F1100304
:10540C000B481946FEF7E6F94FF480633B61002325
:10541C007B610023BB6107F1100305481946FEF7B9
:10542C00D9F92037BD4680BD00380140001002403C
:10543C000008014080B588B000AF334A324B9B69FD
:10544C0043F010039361304B9B6903F01003FB6036
:10545C00FB682D4A2C4B9B6943F0200393612A4B2C
:10546C009B6903F02003BB60BB68274A264B9B69F2
:10547C0043F004039361244B9B6903F004037B60AA
:10548C007B68214A204B9B6943F0080393611E4BB8
:10549C009B6903F008033B603B681C484FF4C071E8
:1054AC000022FEF70DFB1A484FF420510022FEF7A4
:1054BC0007FB4FF4C0733B6101237B610223FB614B
:1054CC0007F1100311481946FEF784F94FF42053E5
:1054DC003B6101237B610223FB6107F110030C4844
:1054EC001946FEF777F94FF49C733B6100237B61FF
:1054FC000023BB6107F1100305481946FEF76AF952
:10550C002037BD4680BD00BF00100240000801409E
:10551C00000C014080B400AFBD465DF8047B7047C1
:10552C0080B400AFFEE700BF80B400AFFEE700BF61
:10553C0080B400AFFEE700BF80B400AFFEE700BF51
:10554C0080B400AFBD465DF8047B704780B400AFFB
:10555C00BD465DF8047B704780B400AFBD465DF876
:10556C00047B704780B500AFFEF704F9FFF7D8F85D
:10557C0080BD00BF80B500AF0148FEF773FC80BD55
:10558C000C0E002080B584B000AF184B184A1A607E
:10559C00164B00229A60154B0022DA60134B002246
:1055AC005A61124B4FF46022DA61104B00225A60A0
:1055BC000E4B01221A610D48FCF78CFF0346002BA1
:1055CC0001D000F05BFA08237B600123BB60002351
:1055DC00FB603B1D05481946FDF77AF80346002B86
:1055EC0001D000F04BFA1037BD4680BDA00D002055
:1055FC000024014080B588B000AF78607B681B68E0
:10560C000D4A934215D10D4A0C4B9B6943F4007320
:10561C0093610A4B9B6903F40073FB60FB680323E3
:10562C003B6103237B6107F1100305481946FEF724
:10563C00D1F82037BD4680BD002401400010024047
:10564C00000C014080B586B000AF1C4B4FF080427F
:10565C001A601A4B4FF420725A60184B00229A6051
:10566C00164B0022DA60154B00221A611348FEF724
:10567C00E3FA0346002B01D000F000FA4FF48053FC
:10568C00BB6007F108030D481946FEF7F3FC03460F
:10569C00002B01D000F0F2F900233B6000237B606B
:1056AC003B4606481946FEF76DFA0346002B01D01F
:1056BC0000F0E4F91837BD4680BD00BF0C0E002089
:1056CC0080B58CB000AF1E4B1E4A1A601C4B0022DA
:1056DC005A601B4B00229A60194BFF22DA60184B60
:1056EC0000221A610223FB6000233B6101237B61D2
:1056FC000023BB610023FB6100233B6201237B621F
:10570C000023BB620023FB6207F10C030C48194613
:10571C00FEF7DAFA0346002B01D000F0AFF90023B4
:10572C007B600023BB603B1D05481946FEF72AFA37
:10573C000346002B01D000F0A1F93037BD4680BDE7
:10574C00D00D00200008004080B584B000AF786018
:10575C007B681B68B3F1804F13D10B4A0A4BDB6992
:10576C0043F00103D361084BDB6903F00103FB60D9
:10577C00FB681C2000210022FEF780FF1C20FEF796
:10578C0099FF1037BD4680BD0010024080B588B02F
:10579C0000AF78607B681B680E4A934217D10E4AA3
:1057AC000D4BDB6943F00403D3610B4BDB6903F056
:1057BC000403FB60FB68C0233B6100237B61002377
:1057CC00BB6107F1100305481946FEF703F82037B3
:1057DC00BD4680BD0008004000100240000C014096
:1057EC0080B584B000AFF860B9607A607B689BB21A
:1057FC000548B9681A460A23FFF702F87B68184671
:10580C001037BD4680BD00BF600D002080B500AFD5
:10581C00094B0A4A1A60084B4FF0FF325A60064B8C
:10582C0000229A600448FDF7E3F80346002B01D0F0
:10583C0000F024F980BD00BF480E00200028004075
:10584C0080B586B000AF78607B681B68124A9342C3
:10585C001ED1FEF771FF114A104BDB6943F0006358
:10586C00D3610E4BDB6903F00063FB60FB684FF404
:10587C0000437B617B6993FAA3F33B613B69B3FA09
:10588C0083F39B001A46064B13441A4601231360FC
:10589C001837BD4680BD00BF0028004000100240F4
:1058AC000004424280B582B000AF7860FBF700FA8A
:1058BC000837BD4680BD00BF80B58AB006AFFDF786
:1058CC0027FF00F07DF8FFF7B5FDFFF79FFFFFF70F
:1058DC0059FEFFF7F5FEFFF7B5FEFFF74BFD314A1A
:1058EC003B1D1068516803C30823009310230193D8
:1058FC00202302934023039308230493002305934E
:10590C002948012102220423FAF7F0FF0120FAF7BB
:10591C009DFE3B1D00201946FAF746FF0020012191
:10592C00FAF712FF2148FAF78FFF0020FAF776FFFB
:10593C00012000210022FAF7CBFE4FF49670FDF700
:10594C0033FFFAF7A5FE1A480021FEF753FAFBF7CE
:10595C0001FA1848FBF7B2FB00201749FBF7BCFB18
:10596C00FBF702F9FFF7A6FB0120FFF7F9FB002379
:10597C00FB60FB680133FB60FA68104BA3FB02135E
:10598C005B09642101FB03F3D31A012B01D1FFF74F
:10599C00B9FBFFF7A9FBFBF775FA0120FDF704FF34
:1059AC00E7E700BF646E000800080140546E000871
:1059BC00D00D002009520008B15200081F85EB5190
:1059CC0080B594B000AF0923BB624FF48033FB6207
:1059DC0000233B6301233B6402237B644FF480333D
:1059EC00BB644FF46013FB6407F128031846FBF704
:1059FC00CDFB0346002B01D000F040F80F237B6158
:105A0C000223BB610023FB614FF480633B620023E4
:105A1C007B6207F1140318460221FCF7D3FA034604
:105A2C00002B01D000F02AF803237B604FF40073A5
:105A3C00BB604FF40043FB603B1D1846FDF792FC26
:105A4C000346002B01D000F019F8FCF7F3FC0246DA
:105A5C00094BA3FB02239B091846FEF739FE0420D1
:105A6C00FEF742FE4FF0FF3000210022FEF706FE4B
:105A7C005037BD4680BD00BFD34D621080B400AF1F
:105A8C00FEE700BF002103E00B4B5B584350043191
:105A9C000A480B4B42189A42F6D30A4A02E00023FA
:105AAC0042F8043B084B9A42F9D3FBF73BFB00F05E
:105ABC000FF8FFF701FF7047286F00080000002067
:105ACC00A8000020A8000020600E0020FEE70000C7
